:020000040800F2
:1000000090CD0024AD02000819130108B9030008BF
:10001000B903000889100008194701080000000012
:10002000000000000000000000000000192001088E
:10003000A921000800000000FF0200087920010843
:10004000C7020008C7020008C7020008C70200086C
:10005000C7020008C7020008B121000809220008F1
:10006000212200083922000851220008E116000868
:10007000F1160008C702000801170008C7020008AF
:10008000C7020008C7020008C7020008C70200082C
:10009000C7020008C7020008C7020008692200085A
:1000A000C7020008C7020008C7020008C70200080C
:1000B00091260108C7020008C7020008C70200080D
:1000C000C7020008C7020008C7020008C7020008EC
:1000D000C7020008F9460108C7020008C702000865
:1000E000C9210008C702000800000000C70200087C
:1000F000C7020008C7020008C7020008C7020008BC
:10010000C7020008C7020008C7020008C7020008AB
:1001100069370108C7020008C7020008C7020008C3
:10012000C7020008C7020008C7020008C70200088B
:10013000C7020008C7020008C7020008C70200087B
:1001400000000000000000000000000000000000AF
:10015000C7020008C7020008C7020008C70200085B
:10016000C7020008C7020008C7020008C70200084B
:10017000C7020008C7020008C7020008C70200083B
:10018000C7020008C7020008C7020008C70200082B
:10019000C7020008C7020008C7020008C70200081B
:1001A000C7020008C7020008C7020008C70200080B
:1001B000C7020008D9070108C7020008C7020008E3
:1001C000C7020008C7020008C7020008C7020008EB
:1001D000C7020008C7020008C7020008C7020008DB
:1001E000C7020008C7020008C7020008C7020008CB
:1001F000C7020008C7020008C7020008C7020008BB
:10020000C7020008C7020008C7020008C7020008AA
:10021000C7020008C7020008C7020008C70200089A
:10022000C7020008C7020008C7020008000000005B
:10023000C7020008C702000800000000C70200084B
:10024000C7020008C7020008C7020008C70200086A
:10025000C7020008C7020008C7020008C70200085A
:10026000C7020008C7020008E9070108C702000822
:10027000C7020008C7020008C7020008000000000B
:10028000C7020008C7020008C702000800000000FB
:1002900000000000C7020008DFF80CD000F0CAF927
:1002A000004800476907000890CD002406488047B1
:1002B00006480047FEE7FEE7FEE7FEE7FEE7FEE74B
:1002C000FEE7FEE7FEE7FEE7312501089902000898
:1002D000EFF3108072B6704780F310887047444A7D
:1002E0001368012B04D04FF001031360414A1060E2
:1002F000414A116041484FF0805101607047EFF36F
:10030000108272B63A48016851B34FF000010160A3
:100310003848016891B1EFF309811EF0100F08BF52
:1003200021ED108B21E9F00F4FF000041EF0100FAB
:1003300008BF012441F8044D006801602E49096896
:10034000096808C9B1E8F00F002B18BFB1EC108B99
:1003500081F309884EF0100E002B18BF2EF0100EFE
:1003600082F310884EF0040E704723490860EFF3C3
:10037000148222F0040282F314881E494FF0000018
:1003800008601B494FF0010008601D481D49D0F866
:10039000002041EA0201016018484FF080510160DD
:1003A00019480068006880F3088861B662B6BFF338
:1003B0004F8FBFF36F8F70471EF0040F0CBFEFF32A
:1003C0000880EFF3098020E9F00F40F804ED40F8D1
:1003D00004ED1EF0040F0CBF80F3088880F3098839
:1003E00000B51DF0D5F95DF804EB4EF0040E704732
:1003F00064C40024A4C20024B0C2002404ED00E0C0
:1004000020ED00E00000FFFF08ED00E02DE9F05FC7
:100410000546002092469B46884606468146402473
:100420001BE0284641464746224600F0A3F85346C3
:100430005A46C01A914110D311461846224600F080
:100440008AF82D1A67EB01084F4622460120002149
:1004500000F081F817EB00094E41201EA4F10104C1
:10046000DFDC484631462A464346BDE8F09F00009F
:1004700000487047EC6A0208D2B201E000F8012B94
:10048000491EFBD270470022F6E710B513460A4614
:1004900004461946FFF7F0FF204610BD10B504468C
:1004A00004E00B7800F8013B03B1491C521EF8D25E
:1004B000204610BDCAB2401E10F8011F8A4202D069
:1004C0000029F9D100207047421C10F8011B0029B7
:1004D000FBD1801A704710B5002200E0521C835CEB
:1004E0008C5CA34201D1002BF8D1D8B2E1B2401A02
:1004F00010BD30B504460020034600E05B1C93426B
:1005000003D2E05CCD5C401BF8D030BD034611F84F
:10051000012B00F8012B002AF9D11846704730B59D
:1005200005460020034600E05B1C934205D2EC5CCC
:10053000C85C201A01D1002CF6D130BD70B506463A
:1005400025F020FD046805460A220021304600F00F
:1005500021F82C6070BD202A04DB203A00FA02F159
:10056000002070479140C2F1200320FA03F31943A1
:1005700090407047202A04DB203A21FA02F0002143
:10058000704721FA02F3D040C2F1200291400843A3
:10059000194670472DE9F04791460F4680460446BC
:1005A000002614F8015B2DB1FFF762FF0068405D83
:1005B000C007F6D12B2D02D02D2D18D0641E4A462F
:1005C0003946204600F048F827B13968A14201D1E8
:1005D000C7F8008071054FF002040BD54042002897
:1005E00003DD25F0CFFC0460A007BDE8F08746F4EA
:1005F0008066E4E70028F8DA25F0C4FC04606FF0B8
:100600000040F2E770B521F0004303430CD0C1F382
:100610000A550024D5EB040564EB0403D617AD1A84
:10062000B34102DB0020014670BD201841EB0251AE
:1006300070BD0000064C074D06E0E06840F0010385
:1006400094E8070098471034AC42F6D3FFF728FE31
:10065000D8830408F88304082DE9F05F8246007807
:10066000002715468B460AF10104B946302801D00F
:100670009DB113E014F8010B0127782803D0582806
:1006800001D045B10AE00DB1102D07D1002710258A
:1006900014F8010B02E0082500E00A250026B04608
:1006A0000EE005FB080005FB06F1012701EB1046F3
:1006B0001FFA80F8B6F5803F00D3B94614F8010B55
:1006C000294600F018F80028EBDABBF1000F05D03E
:1006D0000FB1641E00E05446CBF80040B9F1000FA2
:1006E00006D025F04FFC02210160C81EBDE8F09F36
:1006F00048EA0640FAE73A2800D2303820F02002D3
:10070000412A01D3A2F13700884201D34FF0FF30D4
:10071000704770B58C1810F8015B15F0070301D114
:1007200010F8013B2A1106D110F8012B03E010F854
:10073000016B01F8016B5B1EF9D12B0705D4002377
:10074000521E0DD401F8013BFAE710F8013BCB1A19
:10075000921C03E013F8015B01F8015B521EF9D50E
:10076000A142D8D3002070BD80B582B022F074FEC3
:1007700000210190084602B080BD0000000000008A
:1007800080B584B003900398006842F20001C4F27F
:100790000201884209D0FFE70398006842F2001185
:1007A000C4F20201884209D1FFE742F20830C4F2E4
:1007B0000200006810F4403F09D129E046F20830F9
:1007C000C5F60200006810F4403F21D0FFE70AF0B0
:1007D000C7F8029003984068B0F5803F01900AD0B6
:1007E000FFE70198B0F5003F05D0FFE70198B0F5AD
:1007F000403F07D00AE00398C0880299B1FBF0F0AF
:10080000029004E002988008029000E0FFE75FE0B9
:100810004FF40020002107F08FFF029003984068FA
:10082000B0F5802F009032D0FFE70098B0F5002F90
:100830002DD0FFE70098B0F5402F28D0FFE70098B3
:10084000B0F5801F23D0FFE70098B0F5A01F1ED0A1
:10085000FFE70098B0F5C01F19D0FFE70098B0F58A
:10086000E01F1FD0FFE70098B0F5001F1ED0FFE784
:100870000098B0F5101F1DD0FFE70098B0F5201FBD
:100880001CD0FFE70098B0F5301F1BD01EE0039886
:1008900040686FF0010101EA50400299B1FBF0F0AD
:1008A000029014E002980009029010E002984009BA
:1008B00002900CE002988009029008E00298C009BA
:1008C000029004E00298000A029000E0FFE7FFE7D0
:1008D00006F00AFF41F20301884217D8FFE70298A9
:1008E00042F60151C0F23111884207D3FFE7039865
:1008F0000068816841F48071816006E003980068B7
:10090000816821F480718160FFE743E0029840082C
:100910000290029845F61061C0F25F01884209D842
:10092000FFE703980068806820F440700399096825
:1009300088602EE002984BF62041C0F2BE0188424A
:100940000AD8FFE7039800688068012161F3092055
:100950000399096888601BE0029847F64001C0F2DD
:100960007D1188420AD8FFE7039800688068022159
:1009700061F3092003990968886008E0039800681A
:10098000806840F44070039909688860FFE7FFE7DA
:10099000FFE7FFE704B080BD80B584B00390039803
:1009A000806B02900298406D10F0500F4CD1FFE721
:1009B0000298416D41F40071416502980068006839
:1009C0000007002822D5FFE7029800680FF02CFEF0
:1009D00000281AD0FFE702980068C0688004002849
:1009E00012D4FFE70298416D21F4807141650298AD
:1009F000406DC004002806D4FFE70298416D41F025
:100A000001014165FFE7FFE7FFE719E00298006891
:100A1000C0688007002812D1FFE70298416D21F4D9
:100A2000807141650298406DC004002806D4FFE73C
:100A30000298416D41F001014165FFE7FFE7FFE7E3
:100A4000029802F0B1FA13E00298406DC006002847
:100A500004D5FFE7029802F0C3FA08E00298C06CE0
:100A6000C06C03990190084601998847FFE7FFE7AA
:100A700004B080BD0000000080B582B001900198F4
:100A8000806B00900098416D41F0400141650098F5
:100A9000816D41F004018165009802F0A1FA02B075
:100AA00080BD00000000000080B582B00190019878
:100AB000806B0090009802F08FFA02B080BD0000B9
:100AC00080B582B00190009141F2F800C2F200407E
:100AD0000078002809D1FFE710F05AFC41F2F80035
:100AE000C2F2004001210170FFE740F61840C5F650
:100AF00002000821016040F21840C5F602004FF4E0
:100B0000807101600FF058F90198009940F281025C
:100B1000C2F20042127840F28203C2F200431B7814
:100B200001EB830301EB820191ED040A91ED0A1AB6
:100B3000D3ED140AD3ED1A1A13F0F2FD02B080BD02
:100B400080B584B0039044F2B610C2F200404FF476
:100B5000AA41C1824FF4D572028044F2CE10C2F293
:100B60000040C18240F2AA21018000200290FFE7EC
:100B700002980F285DDCFFE700200190FFE7019855
:100B8000092827DCFFE70398029901EB8101019A0C
:100B900002EB410130F8110044F2B611C2F20041FB
:100BA00001EB420148800398029901EB8101019A0F
:100BB00002EB410100EB4100B0F8400144F2CE11DC
:100BC000C2F2004101EB42014880FFE70198013089
:100BD0000190D4E741F23C10C2F200404168406C01
:100BE00081420FD9FFE745F68640C0F604001CF0AD
:100BF0001FFA44F2B612C2F20042002118231CF080
:100C0000CBFB0EE045F68640C0F604001CF010FA5F
:100C100044F2CE12C2F20042002118231CF0BCFBA9
:100C2000FFE70A2021F0D0FBFFE702980130029095
:100C30009EE704B080BD000080B584B002900298A9
:100C400000680FF0C1FC0090029800680FF0C4FC2F
:100C500000284DD0FFE70098002849D1FFE702980F
:100C60000068806800F00D00012809D1FFE70298B4
:100C700000680FF04DFC02980068032101600DE050
:100C80000298416D41F0100141650298816D41F07B
:100C90000101816501208DF80F002DE006F02CFD8B
:100CA0000190FFE7029800688068C00700281ED006
:100CB000FFE706F021FD0199401A032816D3FFE74C
:100CC000029800688068C00700280ED0FFE70298ED
:100CD000416D41F0100141650298816D41F00101C3
:100CE000816501208DF80F0006E0FFE7DAE7FFE7F6
:100CF00000208DF80F00FFE79DF80F0004B080BDC5
:100D000080B586B00490049800680FF065FC002858
:100D100040F09780FFE70498006880683F21C8F2A0
:100D2000000108420ED0FFE70498416D41F0100128
:100D300041650498816D41F00101816501208DF8C4
:100D4000170082E0049800680FF0FEFB06F0D4FC68
:100D5000039004980068012142F20002C4F20202EA
:100D6000904201910CD0FFE7049800684DF60071A5
:100D7000CBF6FD710844B0FA80F040090190FFE71E
:100D80000198C00746F20031C5F6020100281CBFD9
:100D900042F20031C4F2020108460FF0FDFB02905E
:100DA0000498006842F20011C4F20201884206D1A0
:100DB000FFE742F20000C4F20200009003E0049852
:100DC00000680090FFE7009804990968884204D001
:100DD000FFE70298002833D1FFE7FFE70498006897
:100DE0000068C00700282AD1FFE7049800680FF0C8
:100DF000F3FB002805D1FFE7049800680FF0A4FB7F
:100E0000FFE706F079FC0399401A032816D3FFE7A1
:100E1000049800680068C00700280ED1FFE7049816
:100E2000416D41F0100141650498816D41F001016F
:100E3000816501208DF8170007E0FFE7CEE7FFE7A7
:100E4000FFE700208DF81700FFE79DF8170006B0B8
:100E500080BD00000000000080B586B0059040F61F
:100E60001840C5F602004FF40021016040F218401E
:100E7000C5F602004FF0807101604FF00071016013
:100E8000FFE742F61E70C2F20040007801460528D6
:100E9000049100F2F5800499DFE801F003516DA39D
:100EA000C5DB40F6E970C2F20040007842F61C2132
:100EB000C2F200410978884211D0FFE742F61C20B7
:100EC000C2F2004001780390084610F0DDFA039862
:100ED000017840F6E972C2F200421170FFE740F675
:100EE000E870C2F20040007840F20401C2F2004112
:100EF0000978884216D0FFE740F20400C2F20040B1
:100F000001784FF4AF62322311FB032102900846AF
:100F100012F0CAFB0298017840F6E872C2F2004271
:100F20001170FFE7012001900199019A00F0ECF99E
:100F300042F61E70C2F2004001990170A0E041F239
:100F40001110C2F200400021017041F21210C2F2F1
:100F50000040017012F0F4FB44F25850C2F200401D
:100F60004FF4436106F064FC42F61E71C2F2004188
:100F700002220A7084E041F21110C2F200400078AF
:100F800001280DD1FFE744F25850C2F2004006F0AC
:100F9000B3FC42F61E71C2F2004104220A70FFE760
:100FA00041F21210C2F200400078012818D1FFE788
:100FB00041F21110C2F200400078002810D1FFE782
:100FC00044F25850C2F2004006F096FC009012F035
:100FD000A3FB42F61E70C2F2004003210170FFE73E
:100FE0004EE040F2B010C2F200400078022819D161
:100FF000FFE740F2B010C2F200400021017044F25D
:10100000DC20C2F2004043F20421C2F200414FF45E
:101010007A7201F0B9FA42F61E71C2F2004104225E
:101020000A70FFE72CE040F2B010C2F200400078F6
:1010300001280DD1FFE740F2B010C2F200400221BA
:10104000017042F61E70C2F2004005210170FFE7F8
:1010500016E042F61E20C2F2004041F23C11C2F2FC
:101060000041FFF72DFD44F2A410C2F2004001211F
:10107000017042F61E70C2F2004000210170FFE7CD
:10108000642021F0A1F9FCE6FFE7FEE70000000084
:1010900080B58AB043200021099008911EF040FDE0
:1010A0004220079008991EF03BFD442006900899C5
:1010B0001EF036FD2F20059008991EF031FD2E20E0
:1010C000049008991EF02CFD2D20039008991EF025
:1010D00027FD4620029008991EF022FD4520019030
:1010E00008991EF01DFD172004211EF019FD099816
:1010F00008991EF065FD079808991EF061FD069895
:1011000008991EF05DFD059808991EF059FD049898
:1011100008991EF055FD039808991EF051FD02989C
:1011200008991EF04DFD019808991EF049FD01F047
:10113000B3F808980AB080BD80B58CB00B9040F22F
:101140000800C2F20040099019F00EF840F2400188
:10115000C2F2004108900846079119F005F80DF118
:101160002A01099A06901046059118F0F9FEBDF87B
:101170002A10099A0490104619F006F9079903906D
:101180000846059918F0ECFEBDF82A10079A02905F
:10119000104619F0F9F845F68641C0F604010190B1
:1011A00008461BF045FF40F203111BF04DFFFFE71F
:1011B00044F2A410C2F200400078C00700280DD00D
:1011C000FFE742F61E20C2F20040FFF7B9FC44F2EE
:1011D000A410C2F2004000210170FFE7642021F05A
:1011E000F3F8E5E70000000080B582B001900198B7
:1011F000806B0090009802F017FB009801210171AC
:1012000002B080BD0000000080B582B0019001985E
:10121000806B0090009802F09FF900980121017105
:1012200002B080BD0000000080B582B0019001983E
:10123000806B00900098016941F004010161009801
:1012400002F0FAFA00980121017102B080BD00009D
:1012500080B582B001900198806B00900098016980
:1012600041F004010161009802F07EF9009801212B
:10127000017102B080BD000080B582B0019001987C
:10128000806B0090009802F0D3FA02B080BD00009D
:1012900080B582B001900198806B0090009802F0B8
:1012A0005FF902B080BD000080B582B00190019866
:1012B00063280ED8FFE744F22860C2F200406321A1
:1012C000416001994BF68032B2FBF1F10139C16006
:1012D0000FE044F22860C2F2004000214160019911
:1012E00043F60062C0F24902B2FBF1F10139C1607C
:1012F000FFE744F22860C2F200400CF065FA02B049
:1013000080BD00000000000080B584B013468C460C
:1013100086468DF80F008DF80E108DF80D2041F2E5
:101320001010C2F200400078002821D1FFE741F2FE
:10133000FC00C2F2004000210174017041700522DE
:101340008270C17044F20002C4F29C524260017289
:101350000A2242728172C17244F20001C4F21C611D
:10136000C16041F21010C2F2004001210170FFE79C
:101370009DF80F00002811D1FFE744F22860C2F267
:1013800000400CF061FB44F2A431C2F20041102293
:1013900002900846114602F04BFC1AE044F2286025
:1013A000C2F200400CF0D4FA694600220A6044F20E
:1013B000A431C2F2004144F27822C2F2004210236A
:1013C0004FF0320C019008461946634602F054FB78
:1013D000FFE741F2FC00C2F20040007C00280DD182
:1013E000FFE741F2FC00C2F2004090ED030ABCEEC0
:1013F000C00A10EE100A17F05BF82BE041F2FC0077
:10140000C2F20040007C01280DD1FFE741F2FC0050
:10141000C2F2004090ED030ABCEEC00A10EE100AC2
:1014200016F0C6FF15E041F2FC00C2F20040007C5D
:1014300002280DD1FFE741F2FC00C2F2004090ED1E
:10144000030ABCEEC00A10EE100A17F091F8FFE78D
:10145000FFE7FFE79DF80E00012840F08D80FFE7D1
:1014600041F2FC00C2F20040C07800284CD1FFE7F6
:1014700041F2FC00C2F200400178427883784FF0DC
:10148000640C01FB0CF102EB820201EB42011944F6
:101490004FF47A72514300EE101AB8EEC00A80ED94
:1014A000010A90ED010A9FED8B1AB4EE410AF1EEAC
:1014B00010FA0FDDFFE741F2FC00C2F2004000210C
:1014C000017005224270817045F20001C4F243713F
:1014D0004160FFE741F2FC00C2F2004090ED010ADA
:1014E000B7EE001AB4EE410AF1EE10FA0BDAFFE79C
:1014F00041F2FC00C2F2004001218170C1704FF046
:101500007E514160FFE72AE041F2FC00C2F2004058
:101510000178427883784FF0640C01FB0CF102EB08
:10152000820201EB4201194400EE101AB8EEC00A23
:1015300080ED010A90ED010AB7EE001AB4EE410AFF
:10154000F1EE10FA0ADAFFE741F2FC00C2F20040C5
:10155000012181704FF07E514160FFE7FFE741F2CA
:10156000FC00C2F2004090ED010ABCEEC00A10EE91
:10157000100AFFF799FEFFE79DF80D00012840F0E3
:10158000A780FFE741F2FC00C2F20040017A427AF4
:10159000837A90F80BC042F2107E01FB0EF14FF4FB
:1015A0007A7E12FB0E11642213FB02110CEB8C02EB
:1015B00001EB420100EE101AB8EEC00A80ED030AFA
:1015C00090ED030A9FED441AB4EE410AF1EE10FAD1
:1015D00012DBFFE741F2FC00C2F200404BF20001D7
:1015E000C4F29A61C160012101720921417208218E
:1015F00081720021C172FFE741F2FC00C2F200409B
:1016000090ED030A9FED351AB4EE410AF1EE10FA9F
:1016100014DCFFE741F2FC00C2F2004090ED030A47
:10162000B3EE041A20EE010A80ED030A40F21840DE
:10163000C5F602004FF40071016007E040F2184067
:10164000C5F602004FF000710160FFE741F2FC00B7
:10165000C2F20040007C00280DD1FFE741F2FC00FF
:10166000C2F2004090ED030ABCEEC00A10EE100A70
:1016700016F01EFF2BE041F2FC00C2F20040007C9D
:1016800001280DD1FFE741F2FC00C2F2004090EDCD
:10169000030ABCEEC00A10EE100A16F089FE15E02F
:1016A00041F2FC00C2F20040007C02280DD1FFE7AD
:1016B00041F2FC00C2F2004090ED030ABCEEC00A09
:1016C00010EE100A16F054FFFFE7FFE7FFE7FFE711
:1016D00004B080BD0050434700B09A46000061440A
:1016E00080B544F2A840C2F2004003F011FB80BD77
:1016F00080B544F23040C2F2004003F009FB80BDE7
:1017000080B544F2B830C2F2004003F001FB80BD66
:1017100083B002900298006801211022C4F20202F4
:101720009042009100F0A380FFE702980068012139
:101730002822C4F202029042009100F09880FFE754
:101740000298006801214022C4F2020290420091F6
:1017500000F08D80FFE70298006801215822C4F252
:1017600002029042009100F08280FFE70298006838
:1017700001217022C4F202029042009177D0FFE76B
:101780000298006801218822C4F20202904200916E
:101790006DD0FFE7029800680121A022C4F2020286
:1017A0009042009163D0FFE7029800680121B822BF
:1017B000C4F202029042009159D0FFE702980068FB
:1017C000012140F21042C4F20202904200914ED038
:1017D000FFE702980068012140F22842C4F20202A9
:1017E0009042009143D0FFE702980068012140F247
:1017F0004042C4F202029042009138D0FFE70298C2
:101800000068012140F25842C4F202029042009165
:101810002DD0FFE702980068012140F27042C4F227
:1018200002029042009122D0FFE702980068012155
:1018300040F28842C4F202029042009117D0FFE7C2
:1018400002980068012140F2A042C4F202029042D4
:1018500000910CD0FFE7029800684FF64831CBF6B4
:10186000FD710844B0FA80F040090090FFE700984D
:10187000C007002828D0FFE70298007810384AF601
:10188000AB21CAF6AA21A0FB010109090191019926
:1018900001F0070146F61A32C0F60202515C029AC4
:1018A000D1650199042907D3FFE702980168042252
:1018B00062F30901816506E00298016840F2FF3297
:1018C00091438165FFE705E00298016821F0FF017F
:1018D0008165FFE70298806D03B07047000000004B
:1018E00084B0039003980068019003980068012178
:1018F00045F20842C5F60202904200914ED0FFE741
:1019000003980068012145F21C42C5F6020290428C
:10191000009143D0FFE703980068012145F230426F
:10192000C5F602029042009138D0FFE703980068A4
:10193000012145F24442C5F60202904200912DD0A9
:10194000FFE703980068012145F25842C5F60202FC
:101950009042009122D0FFE703980068012145F2F0
:101960006C42C5F602029042009117D0FFE703983F
:101970000068012145F28042C5F6020290420091C2
:101980000CD0FFE7039800684AF66C31CAF2FD718B
:101990000844B0FA80F040090090FFE70098C007C3
:1019A000002823D0FFE70398007808384CF6CD4193
:1019B000CCF6CC41A0FB010109090291029945F640
:1019C0000002C5F6020202EB8101039A1166039937
:1019D00045F68002C5F602024A66029901F01F012F
:1019E000012202FA01F1039A916636E00398007829
:1019F00010384AF6AB21CAF6AA21A0FB0101090959
:101A00000291019940F2B842C4F2020291420CD80C
:101A1000FFE7019840F21041C4F20201884204D36A
:101A2000FFE7029808300290FFE7029840F60001B5
:101A3000C4F2020101EB800003990866039840F6A6
:101A40008001C4F202014166029800F01F000121EA
:101A500001FA00F003998866FFE704B070470000C0
:101A600083B002900298007901900198002800F05C
:101A70008C80FFE70198082800F28780FFE7029832
:101A80000068012145F20842C5F602029042009129
:101A90004ED0FFE702980068012145F21C42C5F6CE
:101AA00002029042009143D0FFE7029800680121B2
:101AB00045F23042C5F602029042009138D0FFE76D
:101AC00002980068012145F24442C5F602029042A4
:101AD00000912DD0FFE702980068012145F258429D
:101AE000C5F602029042009122D0FFE702980068FA
:101AF000012145F26C42C5F602029042009117D0D6
:101B0000FFE702980068012145F28042C5F6020213
:101B1000904200910CD0FFE7029800684AF66C31C1
:101B2000CAF2FD710844B0FA80F040090090FFE766
:101B30000098C007002810D0FFE7019845F6FC0187
:101B4000C5F6020101EB80000299C866029845F6CD
:101B50004011C5F6020101670FE0019840F6FC0153
:101B6000C4F2020101EB80000299C866029840F6B7
:101B70004011C4F202010167FFE701980138012119
:101B800001FA00F002994867FFE703B070470000D0
:101B900085B0049000208DF80F000498806900281B
:101BA00024D1FFE70498806A032802901CD8029988
:101BB000DFE801F0020E0219049890F82F00C00728
:101BC000002804D0FFE701208DF80F00FFE70CE0AC
:101BD0000498C06AB0F1C07F04D1FFE701208DF8FE
:101BE0000F00FFE701E000E0FFE749E004988069AB
:101BF000B0F5005F27D1FFE70498806A03280190C1
:101C00001FD80199DFE801F00206021201208DF8C9
:101C10000F0017E0049890F82F00C007002804D0A8
:101C2000FFE701208DF80F00FFE70BE00498C06A82
:101C3000B0F1C07F04D1FFE701208DF80F00FFE76E
:101C400000E0FFE71BE00498806A0328009004D3BB
:101C5000FFE70098032804D00FE001208DF80F0063
:101C60000CE0049890F82F00C007002804D0FFE78C
:101C700001208DF80F00FFE700E0FFE7FFE7FFE737
:101C80009DF80F0005B0704789B008900791069243
:101C900005930898806D04900898806D03900898CB
:101CA000006801211022C4F202029042029100F069
:101CB0000381FFE70898006801212822C4F202028C
:101CC0009042029100F0F880FFE708980068012137
:101CD0004022C4F202029042029100F0ED80FFE740
:101CE0000898006801215822C4F202029042029131
:101CF00000F0E280FFE70898006801217022C4F23A
:101D000002029042029100F0D780FFE70898006835
:101D100001218822C4F202029042029100F0CC809C
:101D2000FFE7089800680121A022C4F20202904255
:101D3000029100F0C180FFE7089800680121B822F5
:101D4000C4F202029042029100F0B680FFE70898C8
:101D50000068012140F21042C4F202029042029156
:101D600000F0AA80FFE708980068012140F22842AD
:101D7000C4F202029042029100F09E80FFE70898B0
:101D80000068012140F24042C4F2020290420291F6
:101D900000F09280FFE708980068012140F2584265
:101DA000C4F202029042029100F08680FFE7089898
:101DB0000068012140F27042C4F202029042029196
:101DC0007AD0FFE708980068012140F28842C4F207
:101DD0000202904202916FD0FFE70898006801214B
:101DE00040F2A042C4F202029042029164D0FFE7A6
:101DF00008980068012140F2B842C4F20202904201
:101E0000029159D0FFE708980068012145F2084285
:101E1000C5F60202904202914ED0FFE70898006892
:101E2000012145F21C42C5F602029042029143D0C4
:101E3000FFE708980068012145F23042C5F602022A
:101E40009042029138D0FFE708980068012145F2DE
:101E50004442C5F60202904202912DD0FFE7089855
:101E60000068012145F25842C5F6020290420291F3
:101E700022D0FFE708980068012145F26C42C5F6C0
:101E800002029042029117D0FFE7089800680121F2
:101E900045F28042C5F60202904202910CD0FFE763
:101EA000089800684AF66C31CAF2FD710844B0FA2D
:101EB00080F040090290FFE70298C00700280FD089
:101EC000FFE70898416E806E48600898C06E002851
:101ED00005D0FFE70898016F406F4860FFE7FFE714
:101EE0000898006801211022C4F202029042019178
:101EF00000F0A380FFE70898006801212822C4F2BF
:101F000002029042019100F09880FFE70898006873
:101F100001214022C4F202029042019100F08D8022
:101F2000FFE70898006801215822C4F2020290429B
:101F3000019100F08280FFE708980068012170227B
:101F4000C4F202029042019177D0FFE7089800683E
:101F500001218822C4F20202904201916DD0FFE774
:101F6000089800680121A022C4F202029042019167
:101F700063D0FFE7089800680121B822C4F202028A
:101F80009042019159D0FFE708980068012140F282
:101F90001042C4F20202904201914ED0FFE708982D
:101FA0000068012140F22842C4F2020290420191ED
:101FB00043D0FFE708980068012140F24042C4F294
:101FC00002029042019138D0FFE708980068012191
:101FD00040F25842C4F20202904201912DD0FFE734
:101FE00008980068012140F27042C4F20202904257
:101FF000019122D0FFE708980068012140F2884251
:10200000C4F202029042019117D0FFE708980068DD
:10201000012140F2A042C4F20202904201910CD090
:10202000FFE7089800684FF64831CBF6FD71084489
:10203000B0FA80F040090190FFE70198C00700283E
:102040002BD0FFE70898C06D00F01F003F2101FA78
:1020500000F00499886008980068016821F48021E4
:1020600001600598089909684860089880684028C8
:1020700009D1FFE7069808990968886007980899C8
:102080000968C86008E00798089909688860069898
:1020900008990968C860FFE784E008980068012192
:1020A00045F20842C5F60202904200914ED0FFE789
:1020B00008980068012145F21C42C5F602029042D0
:1020C000009143D0FFE708980068012145F23042B3
:1020D000C5F602029042009138D0FFE708980068E8
:1020E000012145F24442C5F60202904200912DD0F2
:1020F000FFE708980068012145F25842C5F6020240
:102100009042009122D0FFE708980068012145F233
:102110006C42C5F602029042009117D0FFE7089882
:102120000068012145F28042C5F60202904200910A
:102130000CD0FFE7089800684AF66C31CAF2FD71CE
:102140000844B0FA80F040090090FFE70098C0070B
:10215000002825D0FFE70898C06D00F01F0001217E
:1021600001FA00F0039948600598089909684860E9
:1021700008988068402809D1FFE7069808990968FF
:102180008860079808990968C86008E00798089966
:1021900009688860069808990968C860FFE700E048
:1021A000FFE7FFE709B0704770470000000000003C
:1021B00080B51CF039FA012005F05EF81CF064FAD5
:1021C00080BD00000000000080B51CF02DFA4FF427
:1021D000806005F051F84FF4006005F04DF84FF4C1
:1021E000805005F049F84FF4005005F045F84FF4E1
:1021F000804005F041F84FF4004005F03DF81CF038
:1022000043FA80BD0000000080B51CF00DFA0220EA
:1022100005F032F81CF038FA80BD00000000000024
:1022200080B51CF001FA042005F026F81CF02CFA09
:1022300080BD00000000000080B51CF0F5F908200A
:1022400005F01AF81CF020FA80BD00000000000024
:1022500080B51CF0E9F9102005F00EF81CF014FA16
:1022600080BD00000000000080B51CF0DDF92020DA
:1022700005F002F8402004F0FFFF802004F0FCFF8E
:102280004FF4807004F0F8FF4FF4007004F0F4FF96
:102290001CF0FAF980BD000080B584B01720012140
:1022A000039002911DF08CFC039802991DF088FCAC
:1022B000039802991DF084FC4FF4FA7020F084F822
:1022C0000021039A0190104600911DF079FC0398BB
:1022D00000991DF075FC039800991DF071FC04B085
:1022E00080BD00000000000080B5A6B024902391BE
:1022F00000208DF88B0023980068002801D0FFE7AC
:10230000FFE7FFE7249890F85000012804D1FFE789
:1023100002208DF8970030E12498012180F85010B8
:10232000FFE7FFE700201D901E902498006842F20E
:102330000001C4F20201884206D1FFE742F2001018
:10234000C4F20200089002E000200890FFE708981D
:1023500000280FD1FFE72498416D41F0200141652D
:10236000FFE72498002180F85010FFE701208DF846
:10237000970002E108980EF04FF907902498006842
:102380000EF04AF9002840F0E480FFE707980028A3
:1023900040F0DF80FFE724980068012142F200024C
:1023A000C4F20202904206910CD0FFE72498006824
:1023B0004DF60071CBF6FD710844B0FA80F040098B
:1023C0000690FFE70698C00746F20031C5F6020105
:1023D00000281CBF42F20031C4F20201219123986F
:1023E000006800285FD0FFE72198806820F4404013
:1023F000239949680843219988602498006801213D
:1024000042F20002C4F20202904205910CD0FFE7B2
:10241000249800684DF60071CBF6FD710844B0FABF
:1024200080F040090590FFE70598C00746F20031AB
:10243000C5F6020100281CBF42F20031C4F20201BD
:1024400042F20030C4F20200814212D1FFE742F2B0
:102450000000C4F202000EF0C7F842F20011C4F20C
:102460000201049008460EF0BFF804990843039057
:1024700007E046F20000C5F602000EF0B5F8039042
:10248000FFE7039800280DD1FFE72198806840F608
:102490001F71884323990A68896811430843219969
:1024A0008860FFE754E02198816821F44041816011
:1024B00024980068012142F20002C4F20202904214
:1024C00002910CD0FFE7249800684DF60071CBF61E
:1024D000FD710844B0FA80F040090290FFE70298CD
:1024E000C00746F20031C5F6020100281CBF42F2C7
:1024F0000031C4F2020142F20030C4F20200814213
:1025000012D1FFE742F20000C4F202000EF06CF8B4
:1025100042F20011C4F20201019008460EF064F884
:1025200001990843009007E046F20000C5F602005A
:102530000EF05AF80090FFE70098002807D1FFE757
:102540002198816840F61F7291438160FFE7FFE7A1
:1025500008E02498416D41F02001416501208DF88B
:102560008B00FFE7FFE72498002180F85010FFE779
:102570009DF88B008DF89700FFE79DF8970026B037
:1025800080BD00000000000080B5A0B01E901D912D
:102590001C921E9800680EF03FF8002804D0FFE758
:1025A00002208DF87F00BEE0FFE71E9890F85000F3
:1025B000012804D1FFE702208DF87F00B3E01E98C8
:1025C000012180F85010FFE7FFE7002017901890D6
:1025D0001E98006842F20001C4F20201884206D14E
:1025E000FFE742F20010C4F20200029002E0002075
:1025F0000290FFE7029800280FD1FFE71E98416D77
:1026000041F020014165FFE71E98002180F850103D
:10261000FFE701208DF87F0085E01E98FEF770FB34
:102620008DF86F009DF86F00002806D1FFE702A823
:10263000FEF766FB8DF86F00FFE79DF86F0000283E
:1026400065D1FFE71E98406D40F4807040F601614F
:1026500088431E9948651E98002181651E98C06CAC
:1026600040F69911C0F60001C1631E98C06C40F697
:10267000A921C0F6000101641E98C06C40F67921C2
:10268000C0F60001C1641E980068012142F20002F8
:10269000C4F20202904200910CD0FFE71E9800683D
:1026A0004DF60071CBF6FD710844B0FA80F0400998
:1026B0000090FFE70098C00746F20031C5F602011E
:1026C00000281CBF42F20031C4F2020101911E98A1
:1026D00000684FF01C010160FFE71E98002180F8A0
:1026E0005010FFE71E980068416841F010014160FA
:1026F0001E98C06C01990C311D9A1C9B04F0D0F8F7
:102700008DF86F001E9800680DF0BAFF06E0FFE735
:102710001E98002180F85010FFE7FFE79DF86F003A
:102720008DF87F00FFE79DF87F0020B080BD00009E
:1027300080B5B8B02690259100208DF893002190A7
:10274000269890F83800012801D1FFE700E0FFE764
:102750002598C0680021C4F2FF71884201D0FFE7CC
:102760001EE02698006842F20001C4F2020188428D
:1027700001D1FFE7FFE72698006842F20011C4F29A
:102780000201884201D1FFE7FFE72698006846F280
:102790000001C5F60201884201D1FFE7FFE7FFE72C
:1027A000FFE7269890F85000012804D1FFE70220A7
:1027B0008DF89F00F4E32698012180F85010FFE780
:1027C000FFE7269800680DF01FFF002840F0D48333
:1027D000FFE7259800680003002806D1FFE7259849
:1027E0000068C0F384601E9016E02598006890FA97
:1027F000A0F028902898002804D1FFE720208DF829
:10280000A70005E02898B0FA80F08DF8A700FFE750
:102810009DF8A7001E90FFE71E9800F01F00012101
:1028200001FA00F026990968CA691043C861269820
:10283000006825990A6849680DF002FF269800682B
:102840000DF0E2FE2090269800680DF0ADFE1F907E
:102850002098002840F0BE80FFE71F98002840F035
:10286000B980FFE72698006825990A6889681D9154
:1028700011461D9A0DF014FF41F20000C5F600400C
:10288000006800F07040B0F1805F0BD1FFE7259841
:10289000406926990968C96801F01C014908884007
:1028A0001C901FE026980068C068C00600280BD462
:1028B000FFE72598406926990968C96801F01C015D
:1028C000490888401B900AE02598406926990968C4
:1028D000C96801F01001490888401B90FFE71B9868
:1028E0001C90FFE71C98239025980069042827D0A6
:1028F000FFE72698006825990A680969239B0DF06F
:102900003BFF2698006825990A69497E0139B1FA8A
:1029100081F14909C9071A9111461A9A0DF048FF29
:102920002698006825990A69097E0139B1FA81F172
:102930004909C90219911146199A0DF009FF48E099
:1029400026980068006E00F0F84025990968B0EB01
:10295000816F07D1FFE726980068016E21F00041E2
:102960000166FFE726980068406E00F0F840259960
:102970000968B0EB816F07D1FFE726980068416EC8
:1029800021F000414166FFE726980068806E00F064
:10299000F84025990968B0EB816F07D1FFE72698C9
:1029A0000068816E21F000418166FFE7269800688B
:1029B000C06E00F0F84025990968B0EB816F07D12F
:1029C000FFE726980068C16E21F00041C166FFE76D
:1029D000FFE7FFE7269800680DF0FEFD002840F0B5
:1029E000CA82FFE72698006825990A68C968189185
:1029F0001146189A0DF070FE2598C0680021C4F2A7
:102A0000FF71884240F04781FFE7269800682599CA
:102A1000096809030029179006D1FFE72598006887
:102A2000C0F38460169016E02598006890FAA0F034
:102A30002A902A98002804D1FFE720208DF8AF00C3
:102A400005E02A98B0FA80F08DF8AF00FFE79DF816
:102A5000AF001690FFE71698013000F01F0009281C
:102A600000F28580FFE7259800680003002806D162
:102A7000FFE725980068C0F38460159016E025985C
:102A8000006890FAA0F02C902C98002804D1FFE761
:102A900020208DF8B70005E02C98B0FA80F08DF872
:102AA000B700FFE79DF8B7001590FFE715980130D4
:102AB00000F01F0080062599096809030029149079
:102AC00006D1FFE725980068C0F38460139016E0F4
:102AD0002598006890FAA0F02E902E98002804D136
:102AE000FFE720208DF8BF0005E02E98B0FA80F0B7
:102AF0008DF8BF00FFE79DF8BF001390FFE7139824
:102B0000013000F01F00012101FA00F01499084380
:102B1000259A12681203002A129006D1FFE7259821
:102B20000068C0F38460119016E02598006890FA60
:102B3000A0F030903098002804D1FFE720208DF8D5
:102B4000C70005E03098B0FA80F08DF8C700FFE7C5
:102B50009DF8C7001190FFE71198013000F01F00A9
:102B600000EB4000129941EA0050109089E025984E
:102B700000680003002806D1FFE725980068C0F32D
:102B800084600F9016E02598006890FAA0F03290CB
:102B90003298002804D1FFE720208DF8CF0005E00F
:102BA0003298B0FA80F08DF8CF00FFE79DF8CF00A3
:102BB0000F90FFE70F98013000F01F008006259965
:102BC0000968090300290E9006D1FFE725980068DF
:102BD000C0F384600D9016E02598006890FAA0F08C
:102BE00034903498002804D1FFE720208DF8D700D6
:102BF00005E03498B0FA80F08DF8D700FFE79DF833
:102C0000D7000D90FFE70D98013000F01F00012163
:102C100001FA00F00E990843259A12681203002A5F
:102C20000C9006D1FFE725980068C0F384600B90F4
:102C300016E02598006890FAA0F0369036980028A3
:102C400004D1FFE720208DF8DF0005E03698B0FAC8
:102C500080F08DF8DF00FFE79DF8DF000B90FFE7C5
:102C60000B98013000F01F0000EB40000021CFF670
:102C7000206101EB00500C99084340F00070109067
:102C8000FFE7109825998A6817990A9008460A99CB
:102C90000DF006FDFFE72598C0780006002840F1FA
:102CA0006981FFE726980068012142F20002C4F220
:102CB0000202904209910CD0FFE7269800684DF679
:102CC0000071CBF6FD710844B0FA80F0400909901C
:102CD000FFE70998C00746F20031C5F60201002857
:102CE0001CBF42F20031C4F2020108460DF04CFC58
:102CF0002290269800684FF0010142F20002C4F2CF
:102D00000202904208910CD0FFE7269800684DF629
:102D10000071CBF6FD710844B0FA80F040090890CC
:102D2000FFE70898C00746F20031C5F60201002807
:102D30001CBF42F20031C4F2020142F20030C4F280
:102D40000200814212D1FFE742F20000C4F2020009
:102D50000DF042FC42F20011C4F202010790084655
:102D60000DF03AFC07990843069007E046F2000090
:102D7000C5F602000DF030FC0690FFE7069800282B
:102D800040F0EE80FFE7259800680021CCF6843102
:102D9000884259D1FFE79DF88A000006002853D4E5
:102DA000FFE72698006846F20001C5F60201884256
:102DB00049D1FFE726980068012142F20002C4F2DF
:102DC0000202904205910CD0FFE7269800684DF66C
:102DD0000071CBF6FD710844B0FA80F0400905900F
:102DE000FFE70598C00746F20031C5F6020100284A
:102DF0001CBF42F20031C4F20201229840F40000EC
:102E00000490084604990DF093FC40F27800C2F259
:102E1000004000684FEA901042F66351C0F23E5104
:102E2000A0FB01014FEA91114FF0020202EB4101B8
:102E30002191FFE72198002804D0FFE7219801386D
:102E40002190F7E7FFE78AE0259800680021CCF29F
:102E5000527188423CD1FFE79DF88B00C0070028E3
:102E600036D1FFE72698006846F20001C5F6020158
:102E700088422CD1FFE726980068012142F2000227
:102E8000C4F20202904203910CD0FFE7269800683A
:102E90004DF60071CBF6FD710844B0FA80F04009A0
:102EA0000390FFE70398C00746F20031C5F6020120
:102EB00000281CBF42F20031C4F20201229840F007
:102EC00080700290084602990DF032FCFFE745E061
:102ED000259800680021CCF6B87188423CD1FFE704
:102EE0009DF88A004006002836D4FFE7269800683F
:102EF00046F20001C5F6020188422CD1FFE7269870
:102F00000068012142F20002C4F2020290420191E3
:102F10000CD0FFE7269800684DF60071CBF6FD71E6
:102F20000844B0FA80F040090190FFE70198C0071B
:102F300046F20031C5F6020100281CBF42F2003102
:102F4000C4F20201229840F48000009008460099E3
:102F50000DF0EEFBFFE700E0FFE7FFE7FFE708E02B
:102F60002698416D41F02001416501208DF89300C4
:102F7000FFE7FFE7FFE708E02698416D41F02001F9
:102F8000416501208DF89300FFE7FFE726980021B7
:102F900080F85010FFE79DF893008DF89F00FFE741
:102FA0009DF89F0038B080BD80B582B00190019837
:102FB000006842F20001C4F20201884209D1FFE731
:102FC00040F2B010C2F200400121017010F0A4FBE9
:102FD000FFE702B080BD000081B0009001B07047F3
:102FE00081B0009001B0704710B58EB00C900020F9
:102FF0008DF82F0008900C98002804D1FFE70120DD
:103000008DF83700DDE10C98C068002807D0FFE795
:103010000C98007F012801D1FFE7FFE7FFE70C983C
:10302000406D00280AD1FFE70C9800F0D1F90C9808
:10303000002181650C9880F85010FFE70C9800681B
:103040000DF0BAFA002805D0FFE70C9800680DF0E3
:103050006FFAFFE70C9800680DF0CEFA00281ED139
:10306000FFE70C9800680DF07FFA40F27800C2F29A
:1030700000400068800942F66351C0F23E51A0FB57
:103080000101012202EB91110891FFE70898002845
:1030900004D0FFE7089801380890F7E7FFE70C989D
:1030A00000680DF0A9FA00280ED1FFE70C98416DD9
:1030B00041F0100141650C98816D41F0010181657D
:1030C00001208DF82F00FFE70C9800680DF09CFAA6
:1030D00009900C98406DC006002800F16481FFE75C
:1030E0000998002840F05F81FFE70C98406D40F0A0
:1030F000020020F480700C9948650C9800680DF06F
:103100006BFA002874D1FFE70C980068012142F2A5
:103110000002C4F20202904205910CD0FFE70C9825
:1031200000684DF60071CBF6FD710844B0FA80F0EE
:1031300040090590FFE70598C00746F20031C5F643
:10314000020100281CBF42F20031C4F2020142F227
:103150000030C4F20200814212D1FFE742F20000C7
:10316000C4F202000DF038FA42F20011C4F202017A
:10317000049008460DF030FA04990843039007E0E4
:1031800046F20000C5F602000DF026FA0390FFE7B4
:10319000039800282BD1FFE70C980068012142F228
:1031A0000002C4F20202904202910CD0FFE70C9898
:1031B00000684DF60071CBF6FD710844B0FA80F05E
:1031C00040090290FFE70298C00746F20031C5F6B9
:1031D000020100281CBF42F20031C4F202010C9827
:1031E00040680190084601990DF092FAFFE7FFE769
:1031F00004F07AFA41F20401884213D3FFE70C98F5
:10320000806810280ED1FFE70C98417D026B42EADE
:10321000413182681143007F41EA004040F00C00D8
:103220000A900BE00C98417D026B42EA41318268C2
:103230001143007F41EA00400A90FFE70C98007FAD
:1032400001280BD1FFE70C98006A0021CFF6FE7130
:1032500001EB40400A9908430A90FFE70C98406A46
:1032600000280AD0FFE70C98416A806A01F478715F
:1032700008430A9908430A90FFE70C980068C06861
:103280004CF20301CFF6F07108400A9908430C99FB
:103290000968C8600C9800680DF0B6F907900C98A2
:1032A00000680DF081F90690079800285AD1FFE7D1
:1032B0000698002856D1FFE70C98017DC06A40EAC5
:1032C00081300A900C980068C06844F2030188437A
:1032D0000A9908430C990968C8600C9890F838005E
:1032E00001282AD1FFE70C98406A002805D0FFE7A3
:1032F0000C98806A002801D1FFE7FFE70C9800686E
:1033000000694FF61E01CFF6004108400C990A688B
:10331000CB6BD1F840C0D1F844E00024CFF6FF7465
:1033200004EB034343EA0C0343EA0E03896C19439D
:10333000084340F00100106106E00C980068016944
:1033400021F001010161FFE70C980068006920F09D
:1033500070400C990A68496B084310610C98FDF79E
:103360000FFAFFE70C98C06801280CD1FFE70C9812
:103370000068006B20F00F000C990A688969013918
:103380000843106306E00C980068016B21F00F0100
:103390000163FFE70C98406D40F0010020F002004F
:1033A0000C99486508E00C98416D41F010014165A9
:1033B00001208DF82F00FFE79DF82F008DF83700D2
:1033C000FFE79DF837000EB010BD000000000000C0
:1033D00080B58CB00B9000200A900990089007905F
:1033E00006900B98006842F20001C4F20201884284
:1033F0006DD1FFE741F21410C2F2004001680131C3
:1034000001600068012810D1FFE7FFE744F2D840CF
:10341000C5F60200016841F020010160006800F07B
:10342000200005900598FFE7FFE7FFE744F2E04042
:10343000C5F60200016841F002010160006800F079
:10344000020004900498FFE70220069003200790F2
:103450000020089040F20041C5F6020106AA019042
:103460000846114603F024FF44F2B830C2F200408F
:103470005821C4F202010160092141600199816073
:10348000C1604FF4806202614FF4805242614FF498
:1034900080428261C1614FF440320262416202F0B7
:1034A0003FFD002808D0FFE747F6D360C0F60400D0
:1034B000832111F0ADF9FFE7FFE70B9844F2B83133
:1034C000C2F20041C1640B988863FFE741E00B98AA
:1034D000006842F20011C4F20201884238D1FFE7CD
:1034E00041F21410C2F2004001680131016000682D
:1034F000012810D1FFE7FFE744F2D840C5F60200EB
:10350000016841F020010160006800F02000039094
:103510000398FFE7FFE7FFE744F2E040C5F602004B
:10352000016841F004010160006800F004000290AD
:103530000298FFE7102006900320079000200890D3
:1035400040F60000C5F6020006A903F0B1FEFFE751
:10355000FFE70CB080BD000081B0009001B0704763
:1035600081B0009001B0704781B0009001B0704709
:1035700080B588B0069005910492059800690128ED
:1035800001D1FFE7FFE705980068042801D1FFE7B4
:10359000FFE7FFE706984079012804D1FFE7022002
:1035A0008DF81F003AE1069801214171FFE7FFE71E
:1035B00006980221017105980068042840F08A806D
:1035C000FFE704F099F801900498002832D1FFE752
:1035D000FFE706980068406B48F20001C2F2000164
:1035E00008421ED0FFE704F087F80199401A02282C
:1035F00016D3FFE706980068406B48F20001C2F25C
:10360000000108420BD0FFE70698016941F008016C
:1036100001610698032101718DF81F10FEE0FFE79C
:10362000D7E7012003F0C8FC05988069069909686E
:1036300008642BE0FFE706980068406BC00F002885
:103640001BD0FFE704F058F80199401A022813D361
:10365000FFE706980068406BC00F00280BD0FFE71B
:103660000698016941F00801016106980321017182
:103670008DF81F10D2E0FFE7DDE7012003F09CFC8E
:1036800005988069069909684864FFE7069800680C
:10369000806C049901F0100140F2FF328A4090439F
:1036A000059AD26902FA01F108430699096888640B
:1036B00006980068C06C049901F01001FF228A404E
:1036C0009043059A126A02FA01F1084306990968C3
:1036D000C864FFE70598006901281ED1FFE7069836
:1036E0000068806B0390049800F010001F2101FA1D
:1036F00000F0039921EA00000390059840690290C8
:103700000298049901F0100188400399084303903E
:103710000398069909688863FFE706980068C06BFC
:103720000390049800F01000072101FA00F00399BB
:1037300021EA000003900598C068012803D1FFE743
:103740000020009014E00598C068022803D1FFE72C
:10375000012000900BE005988068002803D1FFE766
:103760000120009002E000200090FFE7FFE7FFE764
:103770000598016880680843009908430290029800
:10378000049901F0100188400399084303900398BD
:1037900006990968C863049800F010004FF480414E
:1037A00001FA00F0069909680A6822EA0000086038
:1037B0000698006800680390049800F0100040F636
:1037C000FE7101FA00F0039921EA000003900598C8
:1037D000406802900298049901F010018840039912
:1037E000084303900398069909680860049800F05C
:1037F0001000C02101FA00F0069909680A6822EA5F
:1038000000000860069801210171FFE70698002179
:103810004171FFE700208DF81F00FFE79DF81F00B2
:1038200008B080BD0000000081B0009001B070477A
:1038300081B0009001B0704781B0009001B0704736
:1038400080B582B000900098002804D1FFE70120E5
:103850008DF8070017E000980079002807D1FFE7EE
:10386000009800214171009800F012F8FFE70098DD
:10387000022101710098002101610098012202716A
:103880008DF80710FFE79DF8070002B080BD00002B
:1038900080B58AB0099000200890079006900590A6
:1038A00004900998006847F20041C4F20001884280
:1038B00064D1FFE7FFE744F2E840C5F60200016883
:1038C00041F000510160006800F00050039003983F
:1038D000FFE7FFE744F2E040C5F60200016841F06F
:1038E00001010160006800F0010002900298FFE70A
:1038F0003020049003200590002006900021C5F69A
:10390000020104AA01900846114603F0D1FC44F2DA
:103910003040C2F200402821C4F20201016044217B
:103920004160402181600199C1604FF48062026171
:103930004FF4006242614FF4005282614FF4807292
:10394000C2614FF400320262416202F0E9FA0028DB
:1039500009D0FFE747F6D360C0F6040040F2051136
:1039600010F056FFFFE7FFE7099844F23041C2F23A
:103970000041C16009988863FFE7FFE70AB080BD96
:1039800085B0049003910292019300200090049866
:10399000006800900398002806D1FFE7029800997C
:1039A00008440830009005E002980099084414305B
:1039B0000090FFE7019800990860002005B070476B
:1039C00083B001900091FFE701984079012804D16C
:1039D000FFE702208DF80B0048E0019801214171BA
:1039E000FFE7FFE7019802210171009800F0100045
:1039F000012101FA00F0019909680A681043086082
:103A00000098002810D1FFE701980068006800F0D6
:103A10003E00022807D1FFE701980068416841F0A5
:103A200001014160FFE715E001980068006800F4BB
:103A30007810009901F01001022202FA01F1884287
:103A400007D1FFE701980068416841F00201416039
:103A5000FFE7FFE7019801210171FFE701980021CD
:103A60004171FFE700208DF80B00FFE79DF80B0088
:103A700003B070470000000080B58AB0DDF830C0A8
:103A8000089007910692059300200390FFE708989D
:103A90004079012804D1FFE702208DF82700C2E019
:103AA000089801214171FFE7FFE7089802210171A1
:103AB0000798002839D1FFE70898806841F2E9119A
:103AC000C0F60001C1630898806841F27921C0F610
:103AD000000101640898806841F22921C0F60001C4
:103AE000C16408980068016841F4805101600C9835
:103AF0000028029008D0FFE70298042809D0FFE7C9
:103B0000029808280AD00EE0089800680830039050
:103B10000AE0089800680C30039005E008980068F7
:103B20001030039000E0FFE738E00898C06841F2E9
:103B30000921C0F60001C1630898C06841F29121D3
:103B4000C0F6000101640898C06841F25121C0F636
:103B50000001C16408980068016841F0805101606B
:103B60000C980028019008D0FFE70198042809D09C
:103B7000FFE7019808280AD00EE008980068143082
:103B800003900AE0089800681830039005E0089850
:103B900000681C30039000E0FFE7FFE7079800286B
:103BA00010D1FFE708980068016841F400510160F6
:103BB000089880680699039A059B02F071FE8DF8BB
:103BC00013000FE008980068016841F0005101609F
:103BD0000898C0680699039A059B02F061FE8DF86B
:103BE0001300FFE7FFE7089800214171FFE79DF808
:103BF000130000280CD1FFE7079800F01000012106
:103C000001FA00F0089909680A681043086005E0A5
:103C10000898016941F004010161FFE79DF8130074
:103C20008DF82700FFE79DF827000AB080BD00004F
:103C300080B582B001900091009800F010004FF420
:103C4000805101FA00F0019909680A6822EA00002F
:103C50000860009800F01000012101FA00F00199BD
:103C600009680A6822EA00000860009800280BD161
:103C7000FFE70198806800F01BF8019909680A685D
:103C800022F400520A600AE00198C06800F010F8BF
:103C9000019909680A6822F000520A60FFE701985A
:103CA00001210171002002B080BD00000000000071
:103CB00080B58AB0089003F01FFD04900898002892
:103CC00005D1FFE701208DF8270000F0B4BC08986B
:103CD00090F8350002280ED0FFE708988021416552
:103CE000FFE70898002180F83410FFE701208DF8E5
:103CF000270000F0A0BC0898006801211022C4F23F
:103D000002029042039100F0A380FFE70898006848
:103D100001212822C4F202029042039100F098800F
:103D2000FFE70898006801214022C4F20202904295
:103D3000039100F08D80FFE7089800680121582268
:103D4000C4F202029042039100F08280FFE70898DB
:103D5000006801217022C4F202029042039177D0E0
:103D6000FFE70898006801218822C4F2020290420D
:103D700003916DD0FFE7089800680121A022C4F2EA
:103D800002029042039163D0FFE708980068012186
:103D9000B822C4F202029042039159D0FFE708987A
:103DA0000068012140F21042C4F2020290420391E5
:103DB0004ED0FFE708980068012140F22842C4F283
:103DC00002029042039143D0FFE708980068012166
:103DD00040F24042C4F202029042039138D0FFE721
:103DE00008980068012140F25842C4F20202904251
:103DF00003912DD0FFE708980068012140F270423E
:103E0000C4F202029042039122D0FFE708980068B2
:103E1000012140F28842C4F202029042039117D07D
:103E2000FFE708980068012140F2A042C4F20202B4
:103E3000904203910CD0FFE7089800684FF6483194
:103E4000CBF6FD710844B0FA80F040090390FFE71B
:103E50000398C007002810D0FFE7089800680168A1
:103E600021F01E01016008980068416921F080017D
:103E7000416108980068059009E0089800680168A9
:103E800021F00E010160089800680590FFE708988E
:103E9000006801211022C4F202029042029100F057
:103EA0000381FFE70898006801212822C4F202027A
:103EB0009042029100F0F880FFE708980068012125
:103EC0004022C4F202029042029100F0ED80FFE72E
:103ED0000898006801215822C4F20202904202911F
:103EE00000F0E280FFE70898006801217022C4F228
:103EF00002029042029100F0D780FFE70898006824
:103F000001218822C4F202029042029100F0CC808A
:103F1000FFE7089800680121A022C4F20202904243
:103F2000029100F0C180FFE7089800680121B822E3
:103F3000C4F202029042029100F0B680FFE70898B6
:103F40000068012140F21042C4F202029042029144
:103F500000F0AA80FFE708980068012140F228429B
:103F6000C4F202029042029100F09E80FFE708989E
:103F70000068012140F24042C4F2020290420291E4
:103F800000F09280FFE708980068012140F2584253
:103F9000C4F202029042029100F08680FFE7089886
:103FA0000068012140F27042C4F202029042029184
:103FB0007AD0FFE708980068012140F28842C4F2F5
:103FC0000202904202916FD0FFE708980068012139
:103FD00040F2A042C4F202029042029164D0FFE794
:103FE00008980068012140F2B842C4F202029042EF
:103FF000029159D0FFE708980068012145F2084274
:10400000C5F60202904202914ED0FFE70898006880
:10401000012145F21C42C5F602029042029143D0B2
:10402000FFE708980068012145F23042C5F6020218
:104030009042029138D0FFE708980068012145F2CC
:104040004442C5F60202904202912DD0FFE7089843
:104050000068012145F25842C5F6020290420291E1
:1040600022D0FFE708980068012145F26C42C5F6AE
:1040700002029042029117D0FFE7089800680121E0
:1040800045F28042C5F60202904202910CD0FFE751
:10409000089800684AF66C31CAF2FD710844B0FA1B
:1040A00080F040090290FFE70298C007002807D07F
:1040B000FFE70898006E016821F480710160FFE756
:1040C000089800681021C4F20201884200F0818043
:1040D000FFE7089800682821C4F20201884278D0DE
:1040E000FFE7089800684021C4F20201884270D0BE
:1040F000FFE7089800685821C4F20201884268D09E
:10410000FFE7089800687021C4F20201884260D07D
:10411000FFE7089800688821C4F20201884258D05D
:10412000FFE708980068A021C4F20201884250D03D
:10413000FFE708980068B821C4F20201884248D01D
:10414000FFE70898006840F21041C4F2020188427B
:104150003FD0FFE70898006840F22841C4F202010E
:10416000884236D0FFE70898006840F24041C4F228
:10417000020188422DD0FFE70898006840F25841BC
:10418000C4F20201884224D0FFE70898006840F298
:104190007041C4F2020188421BD0FFE70898006812
:1041A00040F28841C4F20201884212D0FFE7089829
:1041B000006840F2A041C4F20201884209D0FFE742
:1041C0000898006840F2B841C4F20201884208D160
:1041D000FFE708980068016821F001010A460160C4
:1041E00007E008980068016821F001010A460160B3
:1041F000FFE7FFE705980068C007002819D0FFE730
:1042000003F07AFA0499401A062811D3FFE70898B8
:10421000202141650898032180F83510FFE70898B0
:10422000002180F83410FFE701208DF8270002E21A
:10423000E0E70898006801211022C4F202029042CF
:10424000019100F0A380FFE708980068012128226F
:10425000C4F202029042019100F09880FFE70898B2
:10426000006801214022C4F202029042019100F054
:104270008D80FFE70898006801215822C4F20202ED
:104280009042019100F08280FFE7089800680121C8
:104290007022C4F202029042019177D0FFE70898A1
:1042A000006801218822C4F20202904201916DD07F
:1042B000FFE7089800680121A022C4F202029042A0
:1042C000019163D0FFE7089800680121B822C4F289
:1042D00002029042019159D0FFE70898006801213D
:1042E00040F21042C4F20202904201914ED0FFE728
:1042F00008980068012140F22842C4F2020290426C
:10430000019143D0FFE708980068012140F2404244
:10431000C4F202029042019138D0FFE70898006889
:10432000012140F25842C4F20202904201912DD084
:10433000FFE708980068012140F27042C4F20202CF
:104340009042019122D0FFE708980068012140F2D5
:104350008842C4F202029042019117D0FFE7089808
:104360000068012140F2A042C4F202029042019191
:104370000CD0FFE7089800684FF64831CBF6FD7186
:104380000844B0FA80F040090190FFE70198C007A7
:1043900000280DD0FFE70898806D07900898C06D41
:1043A00000F01F003F2101FA00F0079988600CE03F
:1043B0000898806D06900898C06D00F01F000121DC
:1043C00001FA00F006994860FFE7089800680121AB
:1043D0001022C4F202029042009100F00381FFE734
:1043E0000898006801212822C4F20202904200913C
:1043F00000F0F880FFE70898006801214022C4F22D
:1044000002029042009100F0ED80FFE708980068FA
:1044100001215822C4F202029042009100F0E28091
:10442000FFE70898006801217022C4F2020290425E
:10443000009100F0D780FFE70898006801218822EA
:10444000C4F202029042009100F0CC80FFE708988D
:1044500000680121A022C4F202029042009100F003
:10446000C180FFE7089800680121B822C4F2020267
:104470009042009100F0B680FFE7089800680121A3
:1044800040F21042C4F202029042009100F0AA8071
:10449000FFE708980068012140F22842C4F20202B6
:1044A0009042009100F09E80FFE70898006801218B
:1044B00040F24042C4F202029042009100F0928029
:1044C000FFE708980068012140F25842C4F2020256
:1044D0009042009100F08680FFE708980068012173
:1044E00040F27042C4F20202904200917AD0FFE79B
:1044F00008980068012140F28842C4F2020290420A
:1045000000916FD0FFE708980068012140F2A042B7
:10451000C4F202029042009164D0FFE7089800685C
:10452000012140F2B842C4F202029042009159D0F7
:10453000FFE708980068012145F20842C5F602022B
:10454000904200914ED0FFE708980068012145F2A3
:104550001C42C5F602029042009143D0FFE7089842
:104560000068012145F23042C5F6020290420091F6
:1045700038D0FFE708980068012145F24442C5F6AB
:104580000202904200912DD0FFE7089800680121B7
:1045900045F25842C5F602029042009122D0FFE750
:1045A00008980068012145F26C42C5F6020290426B
:1045B000009117D0FFE708980068012145F280427A
:1045C000C5F60202904200910CD0FFE708980068FF
:1045D0004AF66C31CAF2FD710844B0FA80F0400925
:1045E0000090FFE70098C007002815D0FFE7089863
:1045F000416E806E48600898C06E00280BD0FFE7BF
:104600000898C06E016821F4807101600898016FFC
:10461000406F4860FFE7FFE70898012180F83510F8
:10462000FFE70898002180F83410FFE7FFE700203B
:104630008DF82700FFE79DF827000AB080BD000035
:1046400080B586B004900498002804D1FFE70120CB
:104650008DF817004EE3049890F83500022807D033
:10466000FFE704988021416501208DF8170041E3A0
:104670000498006801211022C4F2020290420291C3
:1046800000F0A380FFE70498006801212822C4F20B
:1046900002029042029100F09880FFE704980068BF
:1046A00001214022C4F202029042029100F08D806A
:1046B000FFE70498006801215822C4F202029042E8
:1046C000029100F08280FFE70498006801217022C7
:1046D000C4F202029042029177D0FFE7049800688A
:1046E00001218822C4F20202904202916DD0FFE7BC
:1046F000049800680121A022C4F2020290420291B3
:1047000063D0FFE7049800680121B822C4F20202D6
:104710009042029159D0FFE704980068012140F2CD
:104720001042C4F20202904202914ED0FFE7049878
:104730000068012140F22842C4F202029042029134
:1047400043D0FFE704980068012140F24042C4F2E0
:1047500002029042029138D0FFE7049800680121DC
:1047600040F25842C4F20202904202912DD0FFE77B
:1047700004980068012140F27042C4F202029042A3
:10478000029122D0FFE704980068012140F288429C
:10479000C4F202029042029117D0FFE70498006829
:1047A000012140F2A042C4F20202904202910CD0D8
:1047B000FFE7049800684FF64831CBF6FD710844D6
:1047C000B0FA80F040090290FFE70298C007002885
:1047D00000F09F80FFE70498042180F835100498CA
:1047E00000681021C4F20201884200F08180FFE7D6
:1047F000049800682821C4F20201884278D0FFE7BB
:10480000049800684021C4F20201884270D0FFE79A
:10481000049800685821C4F20201884268D0FFE77A
:10482000049800687021C4F20201884260D0FFE75A
:10483000049800688821C4F20201884258D0FFE73A
:1048400004980068A021C4F20201884250D0FFE71A
:1048500004980068B821C4F20201884248D0FFE7FA
:104860000498006840F21041C4F2020188423FD02F
:10487000FFE70498006840F22841C4F20201884230
:1048800036D0FFE70498006840F24041C4F20201CC
:1048900088422DD0FFE70498006840F25841C4F2E6
:1048A0000201884224D0FFE70498006840F270417A
:1048B000C4F2020188421BD0FFE70498006840F26E
:1048C0008841C4F20201884212D0FFE704980068D0
:1048D00040F2A041C4F20201884209D0FFE70498E7
:1048E000006840F2B841C4F20201884208D1FFE7F3
:1048F00004980068016821F001010A46016007E0A0
:1049000004980068016821F001010A460160FFE790
:10491000EBE104980068016821F00E010160049841
:1049200000681021C4F20201884200F08180FFE794
:10493000049800682821C4F20201884278D0FFE779
:10494000049800684021C4F20201884270D0FFE759
:10495000049800685821C4F20201884268D0FFE739
:10496000049800687021C4F20201884260D0FFE719
:10497000049800688821C4F20201884258D0FFE7F9
:1049800004980068A021C4F20201884250D0FFE7D9
:1049900004980068B821C4F20201884248D0FFE7B9
:1049A0000498006840F21041C4F2020188423FD0EE
:1049B000FFE70498006840F22841C4F202018842EF
:1049C00036D0FFE70498006840F24041C4F202018B
:1049D00088422DD0FFE70498006840F25841C4F2A5
:1049E0000201884224D0FFE70498006840F2704139
:1049F000C4F2020188421BD0FFE70498006840F22D
:104A00008841C4F20201884212D0FFE7049800688E
:104A100040F2A041C4F20201884209D0FFE70498A5
:104A2000006840F2B841C4F20201884208D1FFE7B1
:104A300004980068016821F001010A46016007E05E
:104A400004980068016821F001010A460160FFE74F
:104A50000498006801211022C4F2020290420191E0
:104A600000F00381FFE70498006801212822C4F2C6
:104A700002029042019100F0F880FFE7049800687C
:104A800001214022C4F202029042019100F0ED8027
:104A9000FFE70498006801215822C4F20202904204
:104AA000019100F0E280FFE7049800680121702284
:104AB000C4F202029042019100F0D780FFE704980F
:104AC000006801218822C4F202029042019100F0A4
:104AD000CC80FFE7049800680121A022C4F2020202
:104AE0009042019100F0C180FFE704980068012125
:104AF000B822C4F202029042019100F0B680FFE7B2
:104B000004980068012140F21042C4F2020290426F
:104B1000019100F0AA80FFE704980068012140F2AB
:104B20002842C4F202029042019100F09E80FFE709
:104B300004980068012140F24042C4F2020290420F
:104B4000019100F09280FFE704980068012140F293
:104B50005842C4F202029042019100F08680FFE7C1
:104B600004980068012140F27042C4F202029042AF
:104B700001917AD0FFE704980068012140F2884251
:104B8000C4F20202904201916FD0FFE704980068DE
:104B9000012140F2A042C4F202029042019164D08D
:104BA000FFE704980068012140F2B842C4F2020213
:104BB0009042019159D0FFE704980068012145F225
:104BC0000842C5F60202904201914ED0FFE70498D8
:104BD0000068012145F21C42C5F602029042019193
:104BE00043D0FFE704980068012145F23042C5F642
:104BF00002029042019138D0FFE704980068012139
:104C000045F24442C5F60202904201912DD0FFE7E1
:104C100004980068012145F25842C5F6020290420C
:104C2000019122D0FFE704980068012145F26C420F
:104C3000C5F602029042019117D0FFE70498006880
:104C4000012145F28042C5F60202904201910CD04A
:104C5000FFE7049800684AF66C31CAF2FD71084417
:104C6000B0FA80F040090190FFE70198C0070028E2
:104C700027D0FFE70498006E016821F4807101607D
:104C80000498806D03900498C06D00F01F0001210E
:104C900001FA00F0039948600498416E806E486004
:104CA0000498C06E00280BD0FFE70498C06E01681E
:104CB00021F4807101600498016F406F4860FFE744
:104CC000FFE70498012180F83510FFE704980021E0
:104CD00080F83410FFE70498006D002804D0FFE747
:104CE0000498016D8847FFE7FFE7FFE700208DF894
:104CF0001700FFE79DF8170006B080BD0000000018
:104D000081B000900098406D01B070470000000035
:104D100080B590B00F9000200B9040F27800C2F266
:104D20000040006848F2B511C1F64E31A0FB010108
:104D3000890A0A910F99896D09910F99896D0891D6
:104D4000099909680E91089909680D910F990968E8
:104D500001221023C4F202039942079200F0A380BB
:104D6000FFE70F98006801212822C4F20202904256
:104D7000079100F09880FFE70F980068012140221A
:104D8000C4F202029042079100F08D80FFE70F9875
:104D9000006801215822C4F202029042079100F0FB
:104DA0008280FFE70F98006801217022C4F202029E
:104DB0009042079177D0FFE70F9800680121882281
:104DC000C4F20202904207916DD0FFE70F9800688D
:104DD0000121A022C4F202029042079163D0FFE7B2
:104DE0000F9800680121B822C4F202029042079194
:104DF00059D0FFE70F980068012140F21042C4F239
:104E00000202904207914ED0FFE70F9800680121FF
:104E100040F22842C4F202029042079143D0FFE7D9
:104E20000F980068012140F24042C4F20202904211
:104E3000079138D0FFE70F980068012140F25842EF
:104E4000C4F20202904207912DD0FFE70F9800684C
:104E5000012140F27042C4F202029042079122D036
:104E6000FFE70F980068012140F28842C4F2020275
:104E70009042079117D0FFE70F980068012140F298
:104E8000A042C4F20202904207910CD0FFE70F98B3
:104E900000684FF64831CBF6FD710844B0FA80F057
:104EA00040090790FFE70798C007002800F0298510
:104EB000FFE70E980F99C96D01F01F01C840000768
:104EC000002840F1B280FFE70F9800681021C4F27B
:104ED0000201884200F08180FFE70F9800682821D6
:104EE000C4F20201884278D0FFE70F9800684021A1
:104EF000C4F20201884270D0FFE70F980068582181
:104F0000C4F20201884268D0FFE70F980068702160
:104F1000C4F20201884260D0FFE70F980068882140
:104F2000C4F20201884258D0FFE70F980068A02120
:104F3000C4F20201884250D0FFE70F980068B82100
:104F4000C4F20201884248D0FFE70F98006840F29F
:104F50001041C4F2020188423FD0FFE70F98006879
:104F600040F22841C4F20201884236D0FFE70F9890
:104F7000006840F24041C4F2020188422DD0FFE7B0
:104F80000F98006840F25841C4F20201884224D0D0
:104F9000FFE70F98006840F27041C4F202018842B6
:104FA0001BD0FFE70F98006840F28841C4F202016D
:104FB000884212D0FFE70F98006840F2A041C4F287
:104FC0000201884209D0FFE70F98006840F2B8411B
:104FD000C4F20201884207D1FFE70F980068006819
:104FE00000F00400069006E00F980068006800F0EA
:104FF00008000690FFE70698002815D0FFE70F98F5
:105000000068016821F0040101600F98C06D00F094
:105010001F00082101FA00F0099988600F98416D7E
:1050200041F001014165FFE7FFE70E980F99C96D57
:1050300001F01F01C840C007002800F0AB80FFE767
:105040000F9800681021C4F20201884200F08180AC
:10505000FFE70F9800682821C4F20201884278D047
:10506000FFE70F9800684021C4F20201884270D027
:10507000FFE70F9800685821C4F20201884268D007
:10508000FFE70F9800687021C4F20201884260D0E7
:10509000FFE70F9800688821C4F20201884258D0C7
:1050A000FFE70F980068A021C4F20201884250D0A7
:1050B000FFE70F980068B821C4F20201884248D087
:1050C000FFE70F98006840F21041C4F202018842E5
:1050D0003FD0FFE70F98006840F22841C4F2020178
:1050E000884236D0FFE70F98006840F24041C4F292
:1050F000020188422DD0FFE70F98006840F2584126
:10510000C4F20201884224D0FFE70F98006840F201
:105110007041C4F2020188421BD0FFE70F9800687B
:1051200040F28841C4F20201884212D0FFE70F9892
:10513000006840F2A041C4F20201884209D0FFE7B2
:105140000F98006840F2B841C4F20201884207D1CA
:10515000FFE70F980068406900F08000059005E0C7
:105160000F980068006800210591FFE70598002866
:105170000FD0FFE70F98C06D00F01F00012101FA6A
:1051800000F0099988600F98416D41F00201416576
:10519000FFE7FFE70E980F99C96D01F01F01C840A6
:1051A0004007002840F1AB80FFE70F98006810210E
:1051B000C4F20201884200F08180FFE70F98006886
:1051C0002821C4F20201884278D0FFE70F980068D6
:1051D0004021C4F20201884270D0FFE70F980068B6
:1051E0005821C4F20201884268D0FFE70F98006896
:1051F0007021C4F20201884260D0FFE70F98006876
:105200008821C4F20201884258D0FFE70F98006855
:10521000A021C4F20201884250D0FFE70F98006835
:10522000B821C4F20201884248D0FFE70F98006815
:1052300040F21041C4F2020188423FD0FFE70F98CC
:10524000006840F22841C4F20201884236D0FFE7EC
:105250000F98006840F24041C4F2020188422DD00C
:10526000FFE70F98006840F25841C4F202018842FB
:1052700024D0FFE70F98006840F27041C4F20201A9
:1052800088421BD0FFE70F98006840F28841C4F2C3
:105290000201884212D0FFE70F98006840F2A04157
:1052A000C4F20201884209D0FFE70F98006840F27B
:1052B000B841C4F20201884207D1FFE70F980068A5
:1052C000006800F00200049005E00F980068006894
:1052D00000210491FFE7049800280FD0FFE70F9802
:1052E000C06D00F01F00042101FA00F009998860E8
:1052F0000F98416D41F004014165FFE7FFE70E980B
:105300000F99C96D01F01F01C840C006002840F187
:10531000E280FFE70F9800681021C4F20201884282
:1053200000F08180FFE70F9800682821C4F2020195
:10533000884278D0FFE70F9800684021C4F202014C
:10534000884270D0FFE70F9800685821C4F202012C
:10535000884268D0FFE70F9800687021C4F202010C
:10536000884260D0FFE70F9800688821C4F20201EC
:10537000884258D0FFE70F980068A021C4F20201CC
:10538000884250D0FFE70F980068B821C4F20201AC
:10539000884248D0FFE70F98006840F21041C4F2FD
:1053A000020188423FD0FFE70F98006840F2284191
:1053B000C4F20201884236D0FFE70F98006840F23D
:1053C0004041C4F2020188422DD0FFE70F980068E7
:1053D00040F25841C4F20201884224D0FFE70F98FE
:1053E000006840F27041C4F2020188421BD0FFE71E
:1053F0000F98006840F28841C4F20201884212D03E
:10540000FFE70F98006840F2A041C4F20201884211
:1054100009D0FFE70F98006840F2B841C4F20201DA
:10542000884207D1FFE70F980068006800F0080085
:10543000039006E00F980068006800F004000390F5
:10544000FFE70398002845D0FFE70F98C06D00F0F4
:105450001F00102101FA00F0099988600F98006878
:105460000068400300281CD5FFE70F98006800681B
:10547000000300280AD4FFE70F98006C002804D02E
:10548000FFE70F98016C8847FFE709E00F98806CF1
:10549000002804D0FFE70F98816C8847FFE7FFE7FB
:1054A00017E00F9800680068C005002807D4FFE7E0
:1054B0000F980068016821F008010160FFE70F986C
:1054C000006C002804D0FFE70F98016C8847FFE7C5
:1054D000FFE7FFE7FFE70E980F99C96D01F01F0185
:1054E000C8408006002840F12E81FFE70F98006831
:1054F0001021C4F20201884200F08180FFE70F987A
:1055000000682821C4F20201884278D0FFE70F9892
:1055100000684021C4F20201884270D0FFE70F9872
:1055200000685821C4F20201884268D0FFE70F9852
:1055300000687021C4F20201884260D0FFE70F9832
:1055400000688821C4F20201884258D0FFE70F9812
:105550000068A021C4F20201884250D0FFE70F98F2
:105560000068B821C4F20201884248D0FFE70F98D2
:10557000006840F21041C4F2020188423FD0FFE7C8
:105580000F98006840F22841C4F20201884236D0E8
:10559000FFE70F98006840F24041C4F202018842E0
:1055A0002DD0FFE70F98006840F25841C4F2020185
:1055B000884224D0FFE70F98006840F27041C4F29F
:1055C000020188421BD0FFE70F98006840F2884133
:1055D000C4F20201884212D0FFE70F98006840F23F
:1055E000A041C4F20201884209D0FFE70F98006889
:1055F00040F2B841C4F20201884207D1FFE70F9898
:105600000068006800F01000029006E00F98006843
:10561000006800F002000290FFE70298002800F006
:105620009180FFE70F98C06D00F01F00202101FA64
:1056300000F0099988600F9890F8350004283BD154
:10564000FFE70F980068016821F0160101600F98CC
:105650000068416921F0800141610F98006C0028C9
:1056600005D1FFE70F98806C002807D0FFE70F985F
:105670000068016821F008010160FFE70F98C06D24
:1056800000F01F003F2101FA00F0099988600F988F
:10569000012180F83510FFE70F98002180F83410C1
:1056A000FFE70F98006D002804D0FFE70F98016D09
:1056B0008847FFE700F031BC0F980068006840039E
:1056C00000281CD5FFE70F98006800680003002839
:1056D0000AD4FFE70F98406C002804D0FFE70F982A
:1056E000416C8847FFE709E00F98C06B002804D0A1
:1056F000FFE70F98C16B8847FFE7FFE721E00F98AE
:1057000000680068C005002811D4FFE70F98006802
:10571000016821F0100101600F98012180F8351017
:10572000FFE70F98002180F83410FFE7FFE70F989C
:10573000C06B002804D0FFE70F98C16B8847FFE7D4
:10574000FFE7FFE7FFE70F98406D002800F0D880E3
:10575000FFE70F98406DC007002800F0C780FFE703
:105760000F98042180F835100F9800681021C4F2BA
:105770000201884200F08180FFE70F98006828212D
:10578000C4F20201884278D0FFE70F9800684021F8
:10579000C4F20201884270D0FFE70F9800685821D8
:1057A000C4F20201884268D0FFE70F9800687021B8
:1057B000C4F20201884260D0FFE70F980068882198
:1057C000C4F20201884258D0FFE70F980068A02178
:1057D000C4F20201884250D0FFE70F980068B82158
:1057E000C4F20201884248D0FFE70F98006840F2F7
:1057F0001041C4F2020188423FD0FFE70F980068D1
:1058000040F22841C4F20201884236D0FFE70F98E7
:10581000006840F24041C4F2020188422DD0FFE707
:105820000F98006840F25841C4F20201884224D027
:10583000FFE70F98006840F27041C4F2020188420D
:105840001BD0FFE70F98006840F28841C4F20201C4
:10585000884212D0FFE70F98006840F2A041C4F2DE
:105860000201884209D0FFE70F98006840F2B84172
:10587000C4F20201884208D1FFE70F98006801686E
:1058800021F001010A46016007E00F9800680168F5
:1058900021F001010A460160FFE7FFE70B980130A4
:1058A0000B900A99884201D9FFE707E0FFE70F98BC
:1058B00000680068C0070028F0D1FFE70F98006873
:1058C0000068C007002805D0FFE70F98032180F883
:1058D000351004E00F98012180F83510FFE7FFE74D
:1058E0000F98002180F83410FFE7FFE70F98C06C95
:1058F000002804D0FFE70F98C16C8847FFE7FFE757
:105900000BE30F980068012145F20842C5F6020238
:10591000904201914ED0FFE70F980068012145F2B7
:105920001C42C5F602029042019143D0FFE70F9856
:105930000068012145F23042C5F602029042019111
:1059400038D0FFE70F980068012145F24442C5F6C0
:105950000202904201912DD0FFE70F9800680121CB
:1059600045F25842C5F602029042019122D0FFE76B
:105970000F980068012145F26C42C5F60202904280
:10598000019117D0FFE70F980068012145F280428E
:10599000C5F60202904201910CD0FFE70F98006813
:1059A0004AF66C31CAF2FD710844B0FA80F0400941
:1059B0000190FFE70198C007002800F0AC82FFE7E4
:1059C0000F98006800680C900D980F99C96D01F050
:1059D0001F01C8404007002840F1DE80FFE79DF826
:1059E00030004007002840F1D780FFE70F98C06DD6
:1059F00000F01F00042101FA00F0089948609DF8AA
:105A00003100000600281BD5FFE79DF83200C007D3
:105A100000280AD1FFE70F98806C002804D0FFE728
:105A20000F98816C8847FFE709E00F98006C002809
:105A300004D0FFE70F98016C8847FFE7FFE7AAE073
:105A40009DF830008006002800F19B80FFE70F984A
:105A500000681021C4F20201884200F08180FFE753
:105A60000F9800682821C4F20201884278D0FFE72D
:105A70000F9800684021C4F20201884270D0FFE70D
:105A80000F9800685821C4F20201884268D0FFE7ED
:105A90000F9800687021C4F20201884260D0FFE7CD
:105AA0000F9800688821C4F20201884258D0FFE7AD
:105AB0000F980068A021C4F20201884250D0FFE78D
:105AC0000F980068B821C4F20201884248D0FFE76D
:105AD0000F98006840F21041C4F2020188423FD0A2
