:020000040800F2
:1000000048B00024AD02000831910008B90300088F
:10001000B90300087907000899B80008000000003B
:10002000000000000000000000000000C997000868
:10003000D912000800000000FF02000829980008FB
:10004000C7020008C7020008C7020008C70200086C
:10005000C7020008C7020008E112000839130008AF
:1000600051130008691300088113000849080008AB
:10007000C7020008C7020008C7020008C70200083C
:10008000C7020008C7020008C7020008C70200082C
:10009000C7020008C7020008C70200089913000839
:1000A000C7020008C7020008C7020008C70200080C
:1000B000C7020008C7020008C7020008C7020008FC
:1000C000C7020008C7020008C7020008C7020008EC
:1000D000C702000879B80008C7020008C702000874
:1000E000F9120008C702000800000000C70200085B
:1000F000C7020008C7020008C7020008C7020008BC
:10010000C7020008C7020008C7020008C7020008AB
:10011000C7020008C7020008C7020008C70200089B
:10012000C7020008C7020008C7020008C70200088B
:10013000C7020008C7020008C7020008C70200087B
:1001400000000000000000000000000000000000AF
:10015000C7020008C7020008C7020008C70200085B
:10016000C7020008C7020008C7020008C70200084B
:10017000C7020008C7020008C7020008C70200083B
:10018000C7020008C7020008C7020008C70200082B
:10019000C7020008C7020008C7020008C70200081B
:1001A000C7020008C7020008C7020008C70200080B
:1001B000C7020008C7020008C7020008C7020008FB
:1001C000C7020008C7020008C7020008C7020008EB
:1001D000C7020008C7020008C7020008C7020008DB
:1001E000C7020008C7020008C7020008C7020008CB
:1001F000C7020008C7020008C7020008C7020008BB
:10020000C7020008C7020008C7020008C7020008AA
:10021000C7020008C7020008C7020008C70200089A
:10022000C7020008C7020008C7020008000000005B
:10023000C7020008C702000800000000C70200084B
:10024000C7020008C7020008C7020008C70200086A
:10025000C7020008C7020008C7020008C70200085A
:10026000C7020008C7020008C7020008C70200084A
:10027000C7020008C7020008C7020008000000000B
:10028000C7020008C7020008C702000800000000FB
:1002900000000000C7020008DFF80CD000F0CAF927
:1002A000004800476907000848B000240648804716
:1002B00006480047FEE7FEE7FEE7FEE7FEE7FEE74B
:1002C000FEE7FEE7FEE7FEE7B99C0008990200089A
:1002D000EFF3108072B6704780F310887047444A7D
:1002E0001368012B04D04FF001031360414A1060E2
:1002F000414A116041484FF0805101607047EFF36F
:10030000108272B63A48016851B34FF000010160A3
:100310003848016891B1EFF309811EF0100F08BF52
:1003200021ED108B21E9F00F4FF000041EF0100FAB
:1003300008BF012441F8044D006801602E49096896
:10034000096808C9B1E8F00F002B18BFB1EC108B99
:1003500081F309884EF0100E002B18BF2EF0100EFE
:1003600082F310884EF0040E704723490860EFF3C3
:10037000148222F0040282F314881E494FF0000018
:1003800008601B494FF0010008601D481D49D0F866
:10039000002041EA0201016018484FF080510160DD
:1003A00019480068006880F3088861B662B6BFF338
:1003B0004F8FBFF36F8F70471EF0040F0CBFEFF32A
:1003C0000880EFF3098020E9F00F40F804ED40F8D1
:1003D00004ED1EF0040F0CBF80F3088880F3098839
:1003E00000B512F05DFD5DF804EB4EF0040E7047B1
:1003F000B0AA0024F0A80024FCA8002404ED00E02A
:1004000020ED00E00000FFFF08ED00E02DE9F05FC7
:100410000546002092469B46884606468146402473
:100420001BE0284641464746224600F0A3F85346C3
:100430005A46C01A914110D311461846224600F080
:100440008AF82D1A67EB01084F4622460120002149
:1004500000F081F817EB00094E41201EA4F10104C1
:10046000DFDC484631462A464346BDE8F09F00009F
:1004700000487047EC9F0108D2B201E000F8012B60
:10048000491EFBD270470022F6E710B513460A4614
:1004900004461946FFF7F0FF204610BD10B504468C
:1004A00004E00B7800F8013B03B1491C521EF8D25E
:1004B000204610BDCAB2401E10F8011F8A4202D069
:1004C0000029F9D100207047421C10F8011B0029B7
:1004D000FBD1801A704710B5002200E0521C835CEB
:1004E0008C5CA34201D1002BF8D1D8B2E1B2401A02
:1004F00010BD30B504460020034600E05B1C93426B
:1005000003D2E05CCD5C401BF8D030BD034611F84F
:10051000012B00F8012B002AF9D11846704730B59D
:1005200005460020034600E05B1C934205D2EC5CCC
:10053000C85C201A01D1002CF6D130BD70B506463A
:1005400018F0A0FF046805460A220021304600F09A
:1005500021F82C6070BD202A04DB203A00FA02F159
:10056000002070479140C2F1200320FA03F31943A1
:1005700090407047202A04DB203A21FA02F0002143
:10058000704721FA02F3D040C2F1200291400843A3
:10059000194670472DE9F04791460F4680460446BC
:1005A000002614F8015B2DB1FFF762FF0068405D83
:1005B000C007F6D12B2D02D02D2D18D0641E4A462F
:1005C0003946204600F048F827B13968A14201D1E8
:1005D000C7F8008071054FF002040BD54042002897
:1005E00003DD18F04FFF0460A007BDE8F08746F474
:1005F0008066E4E70028F8DA18F044FF04606FF042
:100600000040F2E770B521F0004303430CD0C1F382
:100610000A550024D5EB040564EB0403D617AD1A84
:10062000B34102DB0020014670BD201841EB0251AE
:1006300070BD0000064C074D06E0E06840F0010385
:1006400094E8070098471034AC42F6D3FFF728FE31
:1006500078C8010898C801082DE9F05F8246007843
:10066000002715468B460AF10104B946302801D00F
:100670009DB113E014F8010B0127782803D0582806
:1006800001D045B10AE00DB1102D07D1002710258A
:1006900014F8010B02E0082500E00A250026B04608
:1006A0000EE005FB080005FB06F1012701EB1046F3
:1006B0001FFA80F8B6F5803F00D3B94614F8010B55
:1006C000294600F018F80028EBDABBF1000F05D03E
:1006D0000FB1641E00E05446CBF80040B9F1000FA2
:1006E00006D018F0CFFE02210160C81EBDE8F09FC1
:1006F00048EA0640FAE73A2800D2303820F02002D3
:10070000412A01D3A2F13700884201D34FF0FF30D4
:10071000704770B58C1810F8015B15F0070301D114
:1007200010F8013B2A1106D110F8012B03E010F854
:10073000016B01F8016B5B1EF9D12B0705D4002377
:10074000521E0DD401F8013BFAE710F8013BCB1A19
:10075000921C03E013F8015B01F8015B521EF9D50E
:10076000A142D8D3002070BD80B517F0B5FB0020A2
:1007700080BD000000000000FFE7FEE70000000071
:1007800080B582B043200021019114F0A9FA0199AB
:10079000422014F0A5FA0199442014F0A1FA01991D
:1007A0002F2014F09DFA01992E2014F099FA019946
:1007B0002D2014F095FA0199462014F091FA019930
:1007C000452014F08DFA1720042114F089FA00F066
:1007D000FBFD019802B080BD80B586B0059040F267
:1007E0000800C2F2004001900FF086FC40F2400089
:1007F000C2F2004003900FF07FFC01980DF112014E
:1008000002910FF081FB0198BDF812100FF0ACFDC2
:10081000029903980FF078FB0398BDF812100FF0BF
:10082000A3FDFFE740F20800C2F200404AF6D401FF
:10083000C2F2004143F25842C2F200420FF040FDC2
:10084000642016F035FBEDE780B543F23C10C2F2B0
:10085000004001F0E1FD80BD83B002900298016884
:1008600001201022C4F202029142009000F0A38005
:10087000FFE70298016801202822C4F20202914297
:10088000009000F09880FFE7029801680120402264
:10089000C4F202029142009000F08D80FFE70298BE
:1008A000016801205822C4F202029142009000F037
:1008B0008280FFE70298016801207022C4F20202E0
:1008C0009142009077D0FFE70298016801208822CA
:1008D000C4F20202914200906DD0FFE702980168D5
:1008E0000120A022C4F202029142009063D0FFE7EF
:1008F000029801680120B822C4F2020291420090DD
:1009000059D0FFE702980168012040F21042C4F27A
:100910000202914200904ED0FFE702980168012048
:1009200040F22842C4F202029142009043D0FFE715
:1009300002980168012040F24042C4F20202914252
:10094000009038D0FFE702980168012040F2584239
:10095000C4F20202914200902DD0FFE70298016894
:10096000012040F27042C4F202029142009022D073
:10097000FFE702980168012040F28842C4F20202B7
:100980009142009017D0FFE702980168012040F2E1
:10099000A042C4F20202914200900CD0FFE70298FC
:1009A00000684FF64831CBF6FD710844B0FA80F08C
:1009B00040090090FFE70098C00740B3FFE70298A6
:1009C000007810384AF6AB21CAF6AA21A0FB011024
:1009D00000090190019800F007014AF20800C0F6F2
:1009E0000100405C0299C8650198042807D3FFE71D
:1009F00002990868042262F30900886506E00299FA
:100A0000086840F2FF3290438865FFE705E00299ED
:100A1000086820F0FF008865FFE70298806D03B04A
:100A2000704700000000000084B003900398006845
:100A3000019003980168012045F20842C5F60202C0
:100A4000914200904ED0FFE703980168012045F2E3
:100A50001C42C5F602029142009043D0FFE7039882
:100A60000168012045F23042C5F602029142009031
:100A700038D0FFE703980168012045F24442C5F6EB
:100A80000202914200902DD0FFE7039801680120F7
:100A900045F25842C5F602029142009022D0FFE78B
:100AA00003980168012045F26C42C5F602029142AA
:100AB000009017D0FFE703980168012045F28042BB
:100AC000C5F60202914200900CD0FFE7039800683F
:100AD0004AF66C31CAF2FD710844B0FA80F0400960
:100AE0000090FFE70098C00710B3FFE70398007875
:100AF00008384CF6CD41CCF6CC41A0FB01100009E2
:100B00000290029945F60000C5F6020000EB810054
:100B100003990866039945F68000C5F60200486609
:100B2000029800F01F01012088400399886635E093
:100B30000398007810384AF6AB21CAF6AA21A0FB28
:100B4000011000090290019840F2B841C4F202017C
:100B500088420CD8FFE7019840F21041C4F202012C
:100B6000884204D3FFE7029808300290FFE7029919
:100B700040F60000C4F2020000EB81000399086611
:100B8000039940F68000C4F202004866029800F023
:100B90001F010120884003998866FFE704B0704771
:100BA00083B002900298007901900198002800F02B
:100BB0008A80FFE70198082800F28580FFE7029805
:100BC0000168012045F20842C5F6020291420090F8
:100BD0004ED0FFE702980168012045F21C42C5F69D
:100BE00002029142009043D0FFE702980168012081
:100BF00045F23042C5F602029142009038D0FFE73C
:100C000002980168012045F24442C5F60202914271
:100C100000902DD0FFE702980168012045F258426C
:100C2000C5F602029142009022D0FFE702980168C7
:100C3000012045F26C42C5F602029142009017D0A5
:100C4000FFE702980168012045F28042C5F60202E2
:100C5000914200900CD0FFE7029800684AF66C3190
:100C6000CAF2FD710844B0FA80F040090090FFE735
:100C70000098C00780B1FFE7019945F6FC00C5F672
:100C8000020000EB81000299C866029945F6401007
:100C9000C5F6020008670FE0019940F6FC00C4F2B7
:100CA000020000EB81000299C866029940F64010EC
:100CB000C4F202000867FFE70198411E0120884046
:100CC00002994867FFE703B070470000000000008A
:100CD00085B0049000208DF80F000498806918BB3F
:100CE000FFE70498806A029003281BD80299DFE886
:100CF00001F0020D0218049890F82F00C00720B1EF
:100D0000FFE701208DF80F00FFE70CE00498C06AB0
:100D1000B0F1C07F04D1FFE701208DF80F00FFE79D
:100D200001E000E0FFE747E004988069B0F5005F6C
:100D300026D1FFE70498806A019003281ED8019904
:100D4000DFE801F00206021101208DF80F0016E025
:100D5000049890F82F00C00720B1FFE701208DF81C
:100D60000F00FFE70BE00498C06AB0F1C07F04D128
:100D7000FFE701208DF80F00FFE700E0FFE71AE032
:100D80000498806A0090032804D3FFE700980328A2
:100D900004D00EE001208DF80F000BE0049890F8CD
:100DA0002F00C00720B1FFE701208DF80F00FFE7FB
:100DB00000E0FFE7FFE7FFE79DF80F0005B0704791
:100DC00089B008900791069205930898806D049069
:100DD0000898806D03900898016801201022C4F2E1
:100DE00002029142029000F00381FFE70898016837
:100DF00001202822C4F202029142029000F0F88001
:100E0000FFE70898016801204022C4F202029142E3
:100E1000029000F0ED80FFE7089801680120582259
:100E2000C4F202029142029000F0E280FFE70898CB
:100E3000016801207022C4F202029142029000F087
:100E4000D780FFE70898016801208822C4F20202D7
:100E50009142029000F0CC80FFE7089801680120E1
:100E6000A022C4F202029142029000F0C180FFE78A
:100E7000089801680120B822C4F20202914202904F
:100E800000F0B680FFE708980168012040F21042A8
:100E9000C4F202029142029000F0AA80FFE7089893
:100EA0000168012040F22842C4F2020291420290FD
:100EB00000F09E80FFE708980168012040F2404260
:100EC000C4F202029142029000F09280FFE708987B
:100ED0000168012040F25842C4F20202914202909D
:100EE00000F08680FFE708980168012040F2704218
:100EF000C4F20202914202907AD0FFE7089801689A
:100F0000012040F28842C4F20202914202906FD066
:100F1000FFE708980168012040F2A042C4F20202F3
:100F20009142029064D0FFE708980168012040F2E6
:100F3000B842C4F202029142029059D0FFE70898E9
:100F40000168012045F20842C5F602029142029072
:100F50004ED0FFE708980168012045F21C42C5F613
:100F600002029142029043D0FFE7089801680120F5
:100F700045F23042C5F602029142029038D0FFE7B6
:100F800008980168012045F24442C5F602029142E8
:100F900002902DD0FFE708980168012045F25842E1
:100FA000C5F602029142029022D0FFE7089801683C
:100FB000012045F26C42C5F602029142029017D020
:100FC000FFE708980168012045F28042C5F6020259
:100FD000914202900CD0FFE7089800684AF66C3105
:100FE000CAF2FD710844B0FA80F040090290FFE7B0
:100FF0000298C00770B1FFE70898416E806E4860A4
:101000000898C06E28B1FFE70898016F406F4860EC
:10101000FFE7FFE70898016801201022C4F20202EE
:101020009142019000F0A380FFE708980168012039
:101030002822C4F202029142019000F09880FFE75A
:101040000898016801204022C4F2020291420190F6
:1010500000F08D80FFE70898016801205822C4F253
:1010600002029142019000F08280FFE70898016837
:1010700001207022C4F202029142019077D0FFE772
:101080000898016801208822C4F20202914201906E
:101090006DD0FFE7089801680120A022C4F2020287
:1010A0009142019063D0FFE7089801680120B822BF
:1010B000C4F202029142019059D0FFE708980168FA
:1010C000012040F21042C4F20202914201904ED03F
:1010D000FFE708980168012040F22842C4F20202AA
:1010E0009142019043D0FFE708980168012040F247
:1010F0004042C4F202029142019038D0FFE70898C2
:101100000168012040F25842C4F20202914201906B
:101110002DD0FFE708980168012040F27042C4F228
:1011200002029142019022D0FFE708980168012055
:1011300040F28842C4F202029142019017D0FFE7C8
:1011400008980168012040F2A042C4F202029142D4
:1011500001900CD0FFE7089800684FF64831CBF6B5
:10116000FD710844B0FA80F040090190FFE7019852
:10117000C00750B3FFE70898C06D00F01F013F2083
:1011800088400499886008980168086820F48020E5
:1011900008600598089909684860089880684028A0
:1011A00009D1FFE7069808990968886007980899A7
:1011B0000968C86008E00798089909688860069877
:1011C00008990968C860FFE782E008980168012073
:1011D00045F20842C5F60202914200904ED0FFE768
:1011E00008980168012045F21C42C5F602029142AE
:1011F000009043D0FFE708980168012045F2304293
:10120000C5F602029142009038D0FFE708980168C5
:10121000012045F24442C5F60202914200902DD0D1
:10122000FFE708980168012045F25842C5F602021E
:101230009142009022D0FFE708980168012045F212
:101240006C42C5F602029142009017D0FFE7089861
:101250000168012045F28042C5F6020291420090E9
:101260000CD0FFE7089800684AF66C31CAF2FD71AD
:101270000844B0FA80F040090090FFE70098C007EA
:1012800020B3FFE70898C06D00F01F0101208840DF
:10129000039948600598089909684860089880682B
:1012A000402809D1FFE706980899096888600798DF
:1012B00008990968C86008E0079808990968886073
:1012C000069808990968C860FFE700E0FFE7FFE7B4
:1012D00009B07047000000007047000000000000E7
:1012E00080B512F01DFB012003F0DEFA12F048FB7E
:1012F00080BD00000000000080B512F011FB4FF42B
:10130000806003F0D1FA4FF4006003F0CDFA4FF49F
:10131000805003F0C9FA4FF4005003F0C5FA4FF4BF
:10132000804003F0C1FA4FF4004003F0BDFA12F020
:1013300027FB80BD0000000080B512F0F1FA02200A
:1013400003F0B2FA12F01CFB80BD000000000000A8
:1013500080B512F0E5FA042003F0A6FA12F010FBB3
:1013600080BD00000000000080B512F0D9FA08200E
:1013700003F09AFA12F004FB80BD000000000000A8
:1013800080B512F0CDFA102003F08EFA12F0F8FAC0
:1013900080BD00000000000080B512F0C1FA2020DE
:1013A00003F082FA402003F07FFA802003F07CFAF9
:1013B0004FF4807003F078FA4FF4007003F074FA81
:1013C00012F0DEFA80BD000080B582B017200190D7
:1013D0000121009113F0C8FC009815F069FD0198F7
:1013E000002113F0C1FC02B080BD0000000000002D
:1013F00080B58AB0089003F08FFC0490089828B953
:10140000FFE701208DF8270000F0AABC089890F8AB
:10141000350002280ED0FFE7089980204865FFE7D5
:101420000899002081F83400FFE701208DF827009B
:1014300000F096BC0898016801201022C4F2020254
:101440009142039000F0A380FFE708980168012013
:101450002822C4F202029142039000F09880FFE734
:101460000898016801204022C4F2020291420390D0
:1014700000F08D80FFE70898016801205822C4F22F
:1014800002029142039000F08280FFE70898016811
:1014900001207022C4F202029142039077D0FFE74C
:1014A0000898016801208822C4F202029142039048
:1014B0006DD0FFE7089801680120A022C4F2020263
:1014C0009142039063D0FFE7089801680120B82299
:1014D000C4F202029142039059D0FFE708980168D4
:1014E000012040F21042C4F20202914203904ED019
:1014F000FFE708980168012040F22842C4F2020286
:101500009142039043D0FFE708980168012040F220
:101510004042C4F202029142039038D0FFE708989B
:101520000168012040F25842C4F202029142039045
:101530002DD0FFE708980168012040F27042C4F204
:1015400002029142039022D0FFE70898016801202F
:1015500040F28842C4F202029142039017D0FFE7A2
:1015600008980168012040F2A042C4F202029142B0
:1015700003900CD0FFE7089800684FF64831CBF68F
:10158000FD710844B0FA80F040090390FFE703982A
:10159000C00780B1FFE708980168086820F01E00C6
:1015A000086008980168486920F080004861089840
:1015B0000068059009E008980168086820F00E00AE
:1015C0000860089800680590FFE708980168012006
:1015D0001022C4F202029142029000F00381FFE760
:1015E0000898016801202822C4F202029142029068
:1015F00000F0F880FFE70898016801204022C4F25B
:1016000002029142029000F0ED80FFE70898016825
:1016100001205822C4F202029142029000F0E280BE
:10162000FFE70898016801207022C4F2020291428B
:10163000029000F0D780FFE7089801680120882217
:10164000C4F202029142029000F0CC80FFE70898B9
:1016500001680120A022C4F202029142029000F02F
:10166000C180FFE7089801680120B822C4F2020295
:101670009142029000F0B680FFE7089801680120CF
:1016800040F21042C4F202029142029000F0AA809D
:10169000FFE708980168012040F22842C4F20202E4
:1016A0009142029000F09E80FFE7089801680120B7
:1016B00040F24042C4F202029142029000F0928055
:1016C000FFE708980168012040F25842C4F2020284
:1016D0009142029000F08680FFE70898016801209F
:1016E00040F27042C4F20202914202907AD0FFE7C7
:1016F00008980168012040F28842C4F20202914237
:1017000002906FD0FFE708980168012040F2A042E4
:10171000C4F202029142029064D0FFE70898016887
:10172000012040F2B842C4F202029142029059D024
:10173000FFE708980168012045F20842C5F6020259
:10174000914202904ED0FFE708980168012045F2CF
:101750001C42C5F602029142029043D0FFE708986E
:101760000168012045F23042C5F602029142029022
:1017700038D0FFE708980168012045F24442C5F6D9
:101780000202914202902DD0FFE7089801680120E3
:1017900045F25842C5F602029142029022D0FFE77C
:1017A00008980168012045F26C42C5F60202914298
:1017B000029017D0FFE708980168012045F28042A7
:1017C000C5F60202914202900CD0FFE7089800682B
:1017D0004AF66C31CAF2FD710844B0FA80F0400953
:1017E0000290FFE70298C00738B1FFE70898016E42
:1017F000086820F480700860FFE7089800681021EE
:10180000C4F20201884200F08180FFE70898006876
:101810002821C4F20201884278D0FFE708980068C6
:101820004021C4F20201884270D0FFE708980068A6
:101830005821C4F20201884268D0FFE70898006886
:101840007021C4F20201884260D0FFE70898006866
:101850008821C4F20201884258D0FFE70898006846
:10186000A021C4F20201884250D0FFE70898006826
:10187000B821C4F20201884248D0FFE70898006806
:1018800040F21041C4F2020188423FD0FFE70898BD
:10189000006840F22841C4F20201884236D0FFE7D6
:1018A0000898006840F24041C4F2020188422DD0FD
:1018B000FFE70898006840F25841C4F202018842EC
:1018C00024D0FFE70898006840F27041C4F202019A
:1018D00088421BD0FFE70898006840F28841C4F2B4
:1018E0000201884212D0FFE70898006840F2A04148
:1018F000C4F20201884209D0FFE70898006840F26C
:10190000B841C4F20201884207D1FFE70898016894
:10191000086820F00100086006E00898016808687F
:1019200020F001000860FFE7FFE705980068C007A6
:10193000C8B1FFE703F0F0F90499401A062811D363
:10194000FFE70899202048650899032081F83500B1
:10195000FFE70899002081F83400FFE701208DF8A7
:101960002700FDE1E1E70898016801201022C4F298
:1019700002029142019000F0A380FFE708980168FD
:1019800001202822C4F202029142019000F09880C6
:10199000FFE70898016801204022C4F20202914248
:1019A000019000F08D80FFE708980168012058221F
:1019B000C4F202029142019000F08280FFE7089891
:1019C000016801207022C4F202029142019077D096
:1019D000FFE70898016801208822C4F202029142C0
:1019E00001906DD0FFE7089801680120A022C4F2A1
:1019F00002029142019063D0FFE70898016801203C
:101A0000B822C4F202029142019059D0FFE708982F
:101A10000168012040F21042C4F20202914201909A
:101A20004ED0FFE708980168012040F22842C4F236
:101A300002029142019043D0FFE70898016801201B
:101A400040F24042C4F202029142019038D0FFE7D6
:101A500008980168012040F25842C4F20202914203
:101A600001902DD0FFE708980168012040F27042F4
:101A7000C4F202029142019022D0FFE70898016867
:101A8000012040F28842C4F202029142019017D034
:101A9000FFE708980168012040F2A042C4F2020268
:101AA000914201900CD0FFE7089800684FF648314A
:101AB000CBF6FD710844B0FA80F040090190FFE7D1
:101AC0000198C00760B1FFE70898806D07900898FB
:101AD000C06D00F01F013F208840079988600BE02F
:101AE0000898806D06900898C06D00F01F010120D5
:101AF000884006994860FFE7089801680120102295
:101B0000C4F202029142009000F00381FFE70898BE
:101B1000016801202822C4F202029142009000F0E4
:101B2000F880FFE70898016801204022C4F2020211
:101B30009142009000F0ED80FFE7089801680120D5
:101B40005822C4F202029142009000F0E280FFE7C6
:101B50000898016801207022C4F2020291420090AC
:101B600000F0D780FFE70898016801208822C4F2BE
:101B700002029142009000F0CC80FFE708980168D3
:101B80000120A022C4F202029142009000F0C18024
:101B9000FFE7089801680120B822C4F202029142CE
:101BA000009000F0B680FFE708980168012040F23D
:101BB0001042C4F202029142009000F0AA80FFE7B6
:101BC00008980168012040F22842C4F202029142C2
:101BD000009000F09E80FFE708980168012040F225
:101BE0004042C4F202029142009000F09280FFE76E
:101BF00008980168012040F25842C4F20202914262
:101C0000009000F08680FFE708980168012040F20C
:101C10007042C4F20202914200907AD0FFE7089825
:101C20000168012040F28842C4F202029142009011
:101C30006FD0FFE708980168012040F2A042C4F28B
:101C400002029142009064D0FFE7089801680120E9
:101C500040F2B842C4F202029142009059D0FFE72C
:101C600008980168012045F20842C5F60202914237
:101C700000904ED0FFE708980168012045F21C4211
:101C8000C5F602029142009043D0FFE70898016830
:101C9000012045F23042C5F602029142009038D050
:101CA000FFE708980168012045F24442C5F60202A8
:101CB000914200902DD0FFE708980168012045F27D
:101CC0005842C5F602029142009022D0FFE70898E0
:101CD0000168012045F26C42C5F602029142009073
:101CE00017D0FFE708980168012045F28042C5F649
:101CF0000202914200900CD0FFE7089800684AF673
:101D00006C31CAF2FD710844B0FA80F040090090CD
:101D1000FFE70098C007A0B1FFE70898416E806E0A
:101D200048600898C06E58B1FFE70898C16E08680F
:101D300020F4807008600898016F406F4860FFE7EA
:101D4000FFE70899012081F83500FFE70899002096
:101D500081F83400FFE7FFE700208DF82700FFE758
:101D60009DF827000AB080BD80B586B00490049825
:101D700020B9FFE701208DF8170046E3049890F89A
:101D80003500022807D0FFE704998020486501202C
:101D90008DF8170039E30498016801201022C4F27D
:101DA00002029142029000F0A380FFE704980168CC
:101DB00001202822C4F202029142029000F0988091
:101DC000FFE70498016801204022C4F20202914218
:101DD000029000F08D80FFE70498016801205822EE
:101DE000C4F202029142029000F08280FFE7049860
:101DF000016801207022C4F202029142029077D061
:101E0000FFE70498016801208822C4F2020291428F
:101E100002906DD0FFE7049801680120A022C4F26F
:101E200002029142029063D0FFE70498016801200A
:101E3000B822C4F202029142029059D0FFE70498FE
:101E40000168012040F21042C4F202029142029065
:101E50004ED0FFE704980168012040F22842C4F206
:101E600002029142029043D0FFE7049801680120EA
:101E700040F24042C4F202029142029038D0FFE7A1
:101E800004980168012040F25842C4F202029142D3
:101E900002902DD0FFE704980168012040F27042C3
:101EA000C4F202029142029022D0FFE70498016836
:101EB000012040F28842C4F202029142029017D0FF
:101EC000FFE704980168012040F2A042C4F2020238
:101ED000914202900CD0FFE7049800684FF6483119
:101EE000CBF6FD710844B0FA80F040090290FFE79C
:101EF0000298C007002800F09D80FFE704990420A5
:101F000081F83500049800681021C4F2020188426B
:101F100000F08180FFE7049800682821C4F20201E4
:101F2000884278D0FFE7049800684021C4F202019B
:101F3000884270D0FFE7049800685821C4F202017B
:101F4000884268D0FFE7049800687021C4F202015B
:101F5000884260D0FFE7049800688821C4F202013B
:101F6000884258D0FFE704980068A021C4F202011B
:101F7000884250D0FFE704980068B821C4F20201FB
:101F8000884248D0FFE70498006840F21041C4F24C
:101F9000020188423FD0FFE70498006840F22841E0
:101FA000C4F20201884236D0FFE70498006840F28C
:101FB0004041C4F2020188422DD0FFE70498006836
:101FC00040F25841C4F20201884224D0FFE704984D
:101FD000006840F27041C4F2020188421BD0FFE762
:101FE0000498006840F28841C4F20201884212D08D
:101FF000FFE70498006840F2A041C4F20201884261
:1020000009D0FFE70498006840F2B841C4F2020129
:10201000884207D1FFE704980168086820F00100B2
:10202000086006E004980168086820F00100086074
:10203000FFE7E5E104980168086820F00E000860F9
:10204000049800681021C4F20201884200F08180E7
:10205000FFE7049800682821C4F20201884278D082
:10206000FFE7049800684021C4F20201884270D062
:10207000FFE7049800685821C4F20201884268D042
:10208000FFE7049800687021C4F20201884260D022
:10209000FFE7049800688821C4F20201884258D002
:1020A000FFE704980068A021C4F20201884250D0E2
:1020B000FFE704980068B821C4F20201884248D0C2
:1020C000FFE70498006840F21041C4F20201884220
:1020D0003FD0FFE70498006840F22841C4F20201B3
:1020E000884236D0FFE70498006840F24041C4F2CD
:1020F000020188422DD0FFE70498006840F2584161
:10210000C4F20201884224D0FFE70498006840F23C
:102110007041C4F2020188421BD0FFE704980068B6
:1021200040F28841C4F20201884212D0FFE70498CD
:10213000006840F2A041C4F20201884209D0FFE7E2
:102140000498006840F2B841C4F20201884207D105
:10215000FFE704980168086820F00100086006E0C5
:1021600004980168086820F001000860FFE70498FF
:10217000016801201022C4F202029142019000F095
:102180000381FFE70498016801202822C4F20202BB
:102190009142019000F0F880FFE704980168012067
:1021A0004022C4F202029142019000F0ED80FFE76C
:1021B0000498016801205822C4F202029142019061
:1021C00000F0E280FFE70498016801207022C4F269
:1021D00002029142019000F0D780FFE70498016865
:1021E00001208822C4F202029142019000F0CC80CA
:1021F000FFE7049801680120A022C4F20202914284
:10220000019000F0C180FFE7049801680120B82226
:10221000C4F202029142019000F0B680FFE70498F8
:102220000168012040F21042C4F202029142019082
:1022300000F0AA80FFE704980168012040F22842DC
:10224000C4F202029142019000F09E80FFE70498E0
:102250000168012040F24042C4F202029142019022
:1022600000F09280FFE704980168012040F2584294
:10227000C4F202029142019000F08680FFE70498C8
:102280000168012040F27042C4F2020291420190C2
:102290007AD0FFE704980168012040F28842C4F236
:1022A0000202914201906FD0FFE70498016801207B
:1022B00040F2A042C4F202029142019064D0FFE7D2
:1022C00004980168012040F2B842C4F2020291422F
:1022D000019059D0FFE704980168012045F20842B7
:1022E000C5F60202914201904ED0FFE704980168C2
:1022F000012045F21C42C5F602029142019043D0F2
:10230000FFE704980168012045F23042C5F6020259
:102310009142019038D0FFE704980168012045F20E
:102320004442C5F60202914201902DD0FFE7049885
:102330000168012045F25842C5F60202914201901F
:1023400022D0FFE704980168012045F26C42C5F6EF
:1023500002029142019017D0FFE704980168012022
:1023600045F28042C5F60202914201900CD0FFE78F
:10237000049800684AF66C31CAF2FD710844B0FA5C
:1023800080F040090190FFE70198C00728B3FFE7FC
:102390000498016E086820F4807008600498806DCD
:1023A00003900498C06D00F01F010120884003993C
:1023B00048600498416E806E48600498C06E58B1C1
:1023C000FFE70498C16E086820F4807008600498E4
:1023D000016F406F4860FFE7FFE70499012081F833
:1023E0003500FFE70499002081F83400FFE70498E6
:1023F000006D20B1FFE70498016D8847FFE7FFE714
:10240000FFE700208DF81700FFE79DF8170006B0E2
:1024100080BD00000000000080B590B00F9000204B
:102420000B9040F27800C2F20040006848F2B5110B
:10243000C1F64E31A0FB0110800A0A900F98806D02
:1024400009900F98806D0890099800680E90089880
:1024500000680D900F98016801201022C4F202025A
:102460009142079000F0A380FFE70F9801680120D8
:102470002822C4F202029142079000F09880FFE700
:102480000F98016801204022C4F202029142079095
:1024900000F08D80FFE70F98016801205822C4F2F8
:1024A00002029142079000F08280FFE70F980168D6
:1024B00001207022C4F202029142079077D0FFE718
:1024C0000F98016801208822C4F20202914207900D
:1024D0006DD0FFE70F9801680120A022C4F202022C
:1024E0009142079063D0FFE70F9801680120B8225E
:1024F000C4F202029142079059D0FFE70F98016899
:10250000012040F21042C4F20202914207904ED0E4
:10251000FFE70F980168012040F22842C4F202024E
:102520009142079043D0FFE70F980168012040F2E5
:102530004042C4F202029142079038D0FFE70F9860
:102540000168012040F25842C4F202029142079011
:102550002DD0FFE70F980168012040F27042C4F2CD
:1025600002029142079022D0FFE70F9801680120F4
:1025700040F28842C4F202029142079017D0FFE76E
:102580000F980168012040F2A042C4F20202914279
:1025900007900CD0FFE70F9800684FF64831CBF654
:1025A000FD710844B0FA80F040090790FFE70798F2
:1025B000C007002800F01385FFE70E980F99C96D3A
:1025C00001F01F01C8400007002840F1B080FFE77C
:1025D0000F9800681021C4F20201884200F0818047
:1025E000FFE70F9800682821C4F20201884278D0E2
:1025F000FFE70F9800684021C4F20201884270D0C2
:10260000FFE70F9800685821C4F20201884268D0A1
:10261000FFE70F9800687021C4F20201884260D081
:10262000FFE70F9800688821C4F20201884258D061
:10263000FFE70F980068A021C4F20201884250D041
:10264000FFE70F980068B821C4F20201884248D021
:10265000FFE70F98006840F21041C4F2020188427F
:102660003FD0FFE70F98006840F22841C4F2020112
:10267000884236D0FFE70F98006840F24041C4F22C
:10268000020188422DD0FFE70F98006840F25841C0
:10269000C4F20201884224D0FFE70F98006840F29C
:1026A0007041C4F2020188421BD0FFE70F98006816
:1026B00040F28841C4F20201884212D0FFE70F982D
:1026C000006840F2A041C4F20201884209D0FFE74D
:1026D0000F98006840F2B841C4F20201884207D165
:1026E000FFE70F980068006800F00400069006E01D
:1026F0000F980068006800F008000690FFE7069851
:10270000A0B1FFE70F980168086820F00400086096
:102710000F98C06D00F01F0108208840099988605B
:102720000F99486D40F001004865FFE7FFE70E98FC
:102730000F99C96D01F01F01C840C007002800F0C3
:10274000A980FFE70F9800681021C4F202018842B7
:1027500000F08180FFE70F9800682821C4F2020191
:10276000884278D0FFE70F9800684021C4F2020148
:10277000884270D0FFE70F9800685821C4F2020128
:10278000884268D0FFE70F9800687021C4F2020108
:10279000884260D0FFE70F9800688821C4F20201E8
:1027A000884258D0FFE70F980068A021C4F20201C8
:1027B000884250D0FFE70F980068B821C4F20201A8
:1027C000884248D0FFE70F98006840F21041C4F2F9
:1027D000020188423FD0FFE70F98006840F228418D
:1027E000C4F20201884236D0FFE70F98006840F239
:1027F0004041C4F2020188422DD0FFE70F980068E3
:1028000040F25841C4F20201884224D0FFE70F98F9
:10281000006840F27041C4F2020188421BD0FFE719
:102820000F98006840F28841C4F20201884212D039
:10283000FFE70F98006840F2A041C4F2020188420D
:1028400009D0FFE70F98006840F2B841C4F20201D6
:10285000884207D1FFE70F980068406900F08000C8
:10286000059005E00F980068006800200590FFE7DC
:10287000059870B1FFE70F98C06D00F01F010120AF
:102880008840099988600F99486D40F002004865BA
:10289000FFE7FFE70E980F99C96D01F01F01C840CF
:1028A0004007002840F1A980FFE70F980068102139
:1028B000C4F20201884200F08180FFE70F980068AF
:1028C0002821C4F20201884278D0FFE70F980068FF
:1028D0004021C4F20201884270D0FFE70F980068DF
:1028E0005821C4F20201884268D0FFE70F980068BF
:1028F0007021C4F20201884260D0FFE70F9800689F
:102900008821C4F20201884258D0FFE70F9800687E
:10291000A021C4F20201884250D0FFE70F9800685E
:10292000B821C4F20201884248D0FFE70F9800683E
:1029300040F21041C4F2020188423FD0FFE70F98F5
:10294000006840F22841C4F20201884236D0FFE715
:102950000F98006840F24041C4F2020188422DD035
:10296000FFE70F98006840F25841C4F20201884224
:1029700024D0FFE70F98006840F27041C4F20201D2
:1029800088421BD0FFE70F98006840F28841C4F2EC
:102990000201884212D0FFE70F98006840F2A04180
:1029A000C4F20201884209D0FFE70F98006840F2A4
:1029B000B841C4F20201884207D1FFE70F980068CE
:1029C000006800F00200049005E00F9800680068BD
:1029D00000200490FFE7049870B1FFE70F98C06DE6
:1029E00000F01F0104208840099988600F99486D04
:1029F00040F004004865FFE7FFE70E980F99C96DA6
:102A000001F01F01C840C006002840F1DE80FFE74A
:102A10000F9800681021C4F20201884200F0818002
:102A2000FFE70F9800682821C4F20201884278D09D
:102A3000FFE70F9800684021C4F20201884270D07D
:102A4000FFE70F9800685821C4F20201884268D05D
:102A5000FFE70F9800687021C4F20201884260D03D
:102A6000FFE70F9800688821C4F20201884258D01D
:102A7000FFE70F980068A021C4F20201884250D0FD
:102A8000FFE70F980068B821C4F20201884248D0DD
:102A9000FFE70F98006840F21041C4F2020188423B
:102AA0003FD0FFE70F98006840F22841C4F20201CE
:102AB000884236D0FFE70F98006840F24041C4F2E8
:102AC000020188422DD0FFE70F98006840F258417C
:102AD000C4F20201884224D0FFE70F98006840F258
:102AE0007041C4F2020188421BD0FFE70F980068D2
:102AF00040F28841C4F20201884212D0FFE70F98E9
:102B0000006840F2A041C4F20201884209D0FFE708
:102B10000F98006840F2B841C4F20201884207D120
:102B2000FFE70F980068006800F00800039006E0D7
:102B30000F980068006800F004000390FFE7039816
:102B4000002841D0FFE70F98C06D00F01F01102052
:102B50008840099988600F98006800684003002841
:102B60001AD5FFE70F98006800680003002809D411
:102B7000FFE70F98006C20B1FFE70F98016C8847C2
:102B8000FFE708E00F98806C20B1FFE70F98816C99
:102B90008847FFE7FFE716E00F9800680068C00568
:102BA000002807D4FFE70F980168086820F00800A4
:102BB0000860FFE70F98006C20B1FFE70F98016CE9
:102BC0008847FFE7FFE7FFE7FFE70E980F99C96D1A
:102BD00001F01F01C8408006002840F12681FFE770
:102BE0000F9800681021C4F20201884200F0818031
:102BF000FFE70F9800682821C4F20201884278D0CC
:102C0000FFE70F9800684021C4F20201884270D0AB
:102C1000FFE70F9800685821C4F20201884268D08B
:102C2000FFE70F9800687021C4F20201884260D06B
:102C3000FFE70F9800688821C4F20201884258D04B
:102C4000FFE70F980068A021C4F20201884250D02B
:102C5000FFE70F980068B821C4F20201884248D00B
:102C6000FFE70F98006840F21041C4F20201884269
:102C70003FD0FFE70F98006840F22841C4F20201FC
:102C8000884236D0FFE70F98006840F24041C4F216
:102C9000020188422DD0FFE70F98006840F25841AA
:102CA000C4F20201884224D0FFE70F98006840F286
:102CB0007041C4F2020188421BD0FFE70F98006800
:102CC00040F28841C4F20201884212D0FFE70F9817
:102CD000006840F2A041C4F20201884209D0FFE737
:102CE0000F98006840F2B841C4F20201884207D14F
:102CF000FFE70F980068006800F01000029006E0FF
:102D00000F980068006800F002000290FFE7029848
:102D1000002800F08980FFE70F98C06D00F01F01C8
:102D200020208840099988600F9890F83500042881
:102D300037D1FFE70F980168086820F01600086097
:102D40000F980168486920F0800048610F98006C76
:102D500020B9FFE70F98806C38B1FFE70F98016842
:102D6000086820F008000860FFE70F98C06D00F0C9
:102D70001F013F208840099988600F99012081F840
:102D80003500FFE70F99002081F83400FFE70F9826
:102D9000006D20B1FFE70F98016D8847FFE700F055
:102DA00019BC0F9800680068400300281AD5FFE797
:102DB0000F98006800680003002809D4FFE70F9807
:102DC000406C20B1FFE70F98416C8847FFE708E0AF
:102DD0000F98C06B20B1FFE70F98C16B8847FFE7E2
:102DE000FFE720E00F9800680068C005002811D4B4
:102DF000FFE70F980168086820F0100008600F993D
:102E0000012081F83500FFE70F99002081F8340098
:102E1000FFE7FFE70F98C06B20B1FFE70F98C16B8A
:102E20008847FFE7FFE7FFE7FFE70F98406D0028BF
:102E300000F0D480FFE70F98406DC007002800F035
:102E4000C480FFE70F99042081F835000F980068CF
:102E50001021C4F20201884200F08180FFE70F9840
:102E600000682821C4F20201884278D0FFE70F9859
:102E700000684021C4F20201884270D0FFE70F9839
:102E800000685821C4F20201884268D0FFE70F9819
:102E900000687021C4F20201884260D0FFE70F98F9
:102EA00000688821C4F20201884258D0FFE70F98D9
:102EB0000068A021C4F20201884250D0FFE70F98B9
:102EC0000068B821C4F20201884248D0FFE70F9899
:102ED000006840F21041C4F2020188423FD0FFE78F
:102EE0000F98006840F22841C4F20201884236D0AF
:102EF000FFE70F98006840F24041C4F202018842A7
:102F00002DD0FFE70F98006840F25841C4F202014B
:102F1000884224D0FFE70F98006840F27041C4F265
:102F2000020188421BD0FFE70F98006840F28841F9
:102F3000C4F20201884212D0FFE70F98006840F205
:102F4000A041C4F20201884209D0FFE70F9800684F
:102F500040F2B841C4F20201884207D1FFE70F985E
:102F60000168086820F00100086006E00F98016819
:102F7000086820F001000860FFE7FFE70B980130C8
:102F80000B900A99884201D9FFE707E0FFE70F9805
:102F900000680068C0070028F0D1FFE70F980068BC
:102FA0000068C00728B1FFE70F99032081F83500BA
:102FB00004E00F99012081F83500FFE7FFE70F9942
:102FC000002081F83400FFE7FFE70F98C06C20B1C4
:102FD000FFE70F98C16C8847FFE7FFE7FAE20F9819
:102FE0000168012045F20842C5F6020291420190B3
:102FF0004ED0FFE70F980168012045F21C42C5F64C
:1030000002029142019043D0FFE70F98016801202E
:1030100045F23042C5F602029142019038D0FFE7F6
:103020000F980168012045F24442C5F60202914220
:1030300001902DD0FFE70F980168012045F258421A
:10304000C5F602029142019022D0FFE70F98016875
:10305000012045F26C42C5F602029142019017D060
:10306000FFE70F980168012045F28042C5F6020291
:10307000914201900CD0FFE70F9800684AF66C313E
:10308000CAF2FD710844B0FA80F040090190FFE7F0
:103090000198C007002800F09B82FFE70F980068A6
:1030A00000680C900D980F99C96D01F01F01C84080
:1030B0004007002840F1D780FFE79DF83000400727
:1030C000002840F1D080FFE70F98C06D00F01F018D
:1030D00004208840089948609DF8310000060028C7
:1030E00018D5FFE79DF83200C00748B9FFE70F98F1
:1030F000806C20B1FFE70F98816C8847FFE708E0FC
:103100000F98006C20B1FFE70F98016C8847FFE72C
:10311000FFE7A7E09DF830008006002800F19980C5
:10312000FFE70F9800681021C4F20201884200F006
:103130008180FFE70F9800682821C4F202018842CD
:1031400078D0FFE70F9800684021C4F2020188425E
:1031500070D0FFE70F9800685821C4F2020188423E
:1031600068D0FFE70F9800687021C4F2020188421E
:1031700060D0FFE70F9800688821C4F202018842FE
:1031800058D0FFE70F980068A021C4F202018842DE
:1031900050D0FFE70F980068B821C4F202018842BE
:1031A00048D0FFE70F98006840F21041C4F20201D6
:1031B00088423FD0FFE70F98006840F22841C4F2F0
:1031C0000201884236D0FFE70F98006840F2404184
:1031D000C4F2020188422DD0FFE70F98006840F248
:1031E0005841C4F20201884224D0FFE70F980068DA
:1031F00040F27041C4F2020188421BD0FFE70F98F1
:10320000006840F28841C4F20201884212D0FFE710
:103210000F98006840F2A041C4F20201884209D030
:10322000FFE70F98006840F2B841C4F202018842FB
:1032300007D1FFE70F980168086820F008000860D0
:1032400006E00F980168086820F004000860FFE7B6
:10325000FFE70F98006C20B1FFE70F98016C8847DB
:10326000FFE7FFE7B3E10D980F99C96D01F01F016A
:10327000C8408007002840F1E180FFE79DF830005A
:103280008007002840F1DA80FFE70F98C06D00F05A
:103290001F0102208840089948609DF8310000060F
:1032A000002818D5FFE79DF83200C00748B9FFE7AE
:1032B0000F98406C20B1FFE70F98416C8847FFE7FB
:1032C00008E00F98C06B20B1FFE70F98C16B8847EB
:1032D000FFE7FFE7B1E09DF830008006002800F12D
:1032E000A380FFE70F9800681021C4F20201884212
:1032F00000F08180FFE70F9800682821C4F20201E6
:10330000884278D0FFE70F9800684021C4F202019C
:10331000884270D0FFE70F9800685821C4F202017C
:10332000884268D0FFE70F9800687021C4F202015C
:10333000884260D0FFE70F9800688821C4F202013C
:10334000884258D0FFE70F980068A021C4F202011C
:10335000884250D0FFE70F980068B821C4F20201FC
:10336000884248D0FFE70F98006840F21041C4F24D
:10337000020188423FD0FFE70F98006840F22841E1
:10338000C4F20201884236D0FFE70F98006840F28D
:103390004041C4F2020188422DD0FFE70F98006837
:1033A00040F25841C4F20201884224D0FFE70F984E
:1033B000006840F27041C4F2020188421BD0FFE76E
:1033C0000F98006840F28841C4F20201884212D08E
:1033D000FFE70F98006840F2A041C4F20201884262
:1033E00009D0FFE70F98006840F2B841C4F202012B
:1033F000884207D1FFE70F980168086820F01400A1
:10340000086006E00F980168086820F00A0008606C
:10341000FFE70F99012081F83500FFE70F990020A1
:1034200081F83400FFE7FFE70F98C06B20B1FFE79A
:103430000F98C16B8847FFE7FFE7C7E00D980F992A
:10344000C96D01F01F01C8400007002840F1BC8091
:10345000FFE79DF830000007002840F1B580FFE746
:103460000F9800681021C4F20201884200F08180A8
:10347000FFE70F9800682821C4F20201884278D043
:10348000FFE70F9800684021C4F20201884270D023
:10349000FFE70F9800685821C4F20201884268D003
:1034A000FFE70F9800687021C4F20201884260D0E3
:1034B000FFE70F9800688821C4F20201884258D0C3
:1034C000FFE70F980068A021C4F20201884250D0A3
:1034D000FFE70F980068B821C4F20201884248D083
:1034E000FFE70F98006840F21041C4F202018842E1
:1034F0003FD0FFE70F98006840F22841C4F2020174
:10350000884236D0FFE70F98006840F24041C4F28D
:10351000020188422DD0FFE70F98006840F2584121
:10352000C4F20201884224D0FFE70F98006840F2FD
:103530007041C4F2020188421BD0FFE70F98006877
:1035400040F28841C4F20201884212D0FFE70F988E
:10355000006840F2A041C4F20201884209D0FFE7AE
:103560000F98006840F2B841C4F20201884207D1C6
:10357000FFE70F980168086820F01C00086006E06B
:103580000F980168086820F00E000860FFE70F98A8
:10359000C06D00F01F01012000FA01F1089A51608E
:1035A0000F9948650F9981F83500FFE70F990020C2
:1035B00081F83400FFE70F98C06C20B1FFE70F9847
:1035C000C16C8847FFE700E0FFE7FFE7FFE700E0A7
:1035D000FFE7FFE710B080BD10B58EB00C9001F092
:1035E0009BFB0A900C9828B9FFE701208DF8370063
:1035F00000F09FBC0C98016801201022C4F2020266
:103600009142079000F0A380FFE70C980168012029
:103610002822C4F202029142079000F09880FFE74E
:103620000C98016801204022C4F2020291420790E6
:1036300000F08D80FFE70C98016801205822C4F249
:1036400002029142079000F08280FFE70C98016827
:1036500001207022C4F202029142079077D0FFE766
:103660000C98016801208822C4F20202914207905E
:103670006DD0FFE70C9801680120A022C4F202027D
:103680009142079063D0FFE70C9801680120B822AF
:10369000C4F202029142079059D0FFE70C980168EA
:1036A000012040F21042C4F20202914207904ED033
:1036B000FFE70C980168012040F22842C4F20202A0
:1036C0009142079043D0FFE70C980168012040F237
:1036D0004042C4F202029142079038D0FFE70C98B2
:1036E0000168012040F25842C4F202029142079060
:1036F0002DD0FFE70C980168012040F27042C4F21F
:1037000002029142079022D0FFE70C980168012045
:1037100040F28842C4F202029142079017D0FFE7BC
:103720000C980168012040F2A042C4F202029142CA
:1037300007900CD0FFE70C9800684FF64831CBF6A5
:10374000FD710844B0FA80F040090790FFE7079840
:10375000C007002800F07981FFE70C98406A08B1A3
:10376000FFE7FFE70C99022081F83500FFE70C998D
:10377000002081F83400FFE70C9800681021C4F2A3
:103780000201884200F08180FFE70C980068282140
:10379000C4F20201884278D0FFE70C98006840210B
:1037A000C4F20201884270D0FFE70C9800685821EB
:1037B000C4F20201884268D0FFE70C9800687021CB
:1037C000C4F20201884260D0FFE70C9800688821AB
:1037D000C4F20201884258D0FFE70C980068A0218B
:1037E000C4F20201884250D0FFE70C980068B8216B
:1037F000C4F20201884248D0FFE70C98006840F20A
:103800001041C4F2020188423FD0FFE70C980068E3
:1038100040F22841C4F20201884236D0FFE70C98FA
:10382000006840F24041C4F2020188422DD0FFE717
:103830000C98006840F25841C4F20201884224D03A
:10384000FFE70C98006840F27041C4F20201884220
:103850001BD0FFE70C98006840F28841C4F20201D7
:10386000884212D0FFE70C98006840F2A041C4F2F1
:103870000201884209D0FFE70C98006840F2B84185
:10388000C4F20201884207D1FFE70C98016808687A
:1038900020F00100086006E00C980168086820F03C
:1038A00001000860FFE7FFE70C9800680068C007A8
:1038B00098B1FFE701F030FA0A99401A06280BD3B5
:1038C000FFE70C99202048650C99032081F835000A
:1038D00001208DF837002CE3E6E70C9800680068BB
:1038E0000B900B9848F23F01CFF6106108400B9007
:1038F0000C998868D1F80CC00B694A6940EA0C0041
:10390000184310438A691043CA691043096A014386
:103910000B9808430B900C98406A042808D1FFE7E5
:103920000C99C86A096B01430B9808430B90FFE799
:1039300041F20000C5F6004000684FF6FF71884371
:10394000B0F1005F40D3FFE70C984068292807D307
:10395000FFE70C98416801202F2906902AD3FFE742
:103960000C9840683F2807D3FFE70C984168012076
:10397000432906901ED3FFE70C984068472807D3D9
:10398000FFE70C98416801204929069012D3FFE710
:103990000C98416800204F29059008D3FFE70C9848
:1039A00041680020532938BF01200590FFE70598A2
:1039B0000690FFE70698C00728B1FFE70B9840F490
:1039C00080100B90FFE7FFE70B980C9909680860DF
:1039D0000C98006840690B900B9820F007000B9042
:1039E0000C98416A0B9808430B900C98406A042885
:1039F0001AD1FFE70C98816A0B9808430B900C983A
:103A0000C06A80B1FFE70C98FDF762F950B1FFE79B
:103A10000C99402048650C99012081F835008DF8FB
:103A2000370086E2FFE7FFE70B980C9909684861C9
:103A30000C98FCF711FF09900C98C06D00F01F0165
:103A40003F2088400999886026E10C980168012090
:103A500045F20842C5F60202914204904ED0FFE7BB
:103A60000C980168012045F21C42C5F60202914201
:103A7000049043D0FFE70C980168012045F23042E2
:103A8000C5F602029142049038D0FFE70C98016815
:103A9000012045F24442C5F60202914204902DD025
:103AA000FFE70C980168012045F25842C5F6020272
:103AB0009142049022D0FFE70C980168012045F262
:103AC0006C42C5F602029142049017D0FFE70C98B1
:103AD0000168012045F28042C5F60202914204903D
:103AE0000CD0FFE70C9800684AF66C31CAF2FD7101
:103AF0000844B0FA80F040090490FFE70498C0073A
:103B0000002800F0BD80FFE70C980168012045F215
:103B10000842C5F60202914203904ED0FFE70C988E
:103B20000168012045F21C42C5F602029142039051
:103B300043D0FFE70C980168012045F23042C5F6FA
:103B400002029142039038D0FFE70C9801680120EF
:103B500045F24442C5F60202914203902DD0FFE7A0
:103B60000C980168012045F25842C5F602029142C4
:103B7000039022D0FFE70C980168012045F26C42C7
:103B8000C5F602029142039017D0FFE70C98016836
:103B9000012045F28042C5F60202914203900CD00A
:103BA000FFE70C9800684AF66C31CAF2FD710844D0
:103BB000B0FA80F040090390FFE70398C00708B10E
:103BC000FFE7FFE70C99022081F83500FFE70C9929
:103BD000002081F83400FFE70C98006800680B9023
:103BE0000B986FF310100B900C988068402803D14D
:103BF000FFE71020029008E00C9880688038B0FA47
:103C000080F0400980030290FFE702980C99CA688F
:103C10000B69D1F814C0D1F818E0CC694EEA040E53
:103C20004CEA0E0C43EA0C031A4340EAD200096A3C
:103C300040EA11110B9808430B900B980C990968F6
:103C400008600C9908684AF6F832CAF2FD7210440E
:103C50004CF6CD42CCF6CC42A0FB02026FF0030042
:103C600000EA9200C8650C98FCF7F6FD08900C98E5
:103C7000C06D00F01F0101208840089948600AE0EB
:103C80000C99402048650C99032081F835000120EB
:103C90008DF837004DE1FFE70C98016801201022F4
:103CA000C4F202029142019000F00381FFE70C98F8
:103CB000016801202822C4F202029142019000F022
:103CC000F880FFE70C98016801204022C4F202024C
:103CD0009142019000F0ED80FFE70C98016801200F
:103CE0005822C4F202029142019000F0E280FFE704
:103CF0000C98016801207022C4F2020291420190E6
:103D000000F0D780FFE70C98016801208822C4F2F8
:103D100002029142019000F0CC80FFE70C9801680C
:103D20000120A022C4F202029142019000F0C18061
:103D3000FFE70C9801680120B822C4F20202914208
:103D4000019000F0B680FFE70C980168012040F276
:103D50001042C4F202029142019000F0AA80FFE7F3
:103D60000C980168012040F22842C4F202029142FC
:103D7000019000F09E80FFE70C980168012040F25E
:103D80004042C4F202029142019000F09280FFE7AB
:103D90000C980168012040F25842C4F2020291429C
:103DA000019000F08680FFE70C980168012040F246
:103DB0007042C4F20202914201907AD0FFE70C985F
:103DC0000168012040F28842C4F20202914201904F
:103DD0006FD0FFE70C980168012040F2A042C4F2C6
:103DE00002029142019064D0FFE70C980168012023
:103DF00040F2B842C4F202029142019059D0FFE76A
:103E00000C980168012045F20842C5F60202914271
:103E100001904ED0FFE70C980168012045F21C424A
:103E2000C5F602029142019043D0FFE70C98016869
:103E3000012045F23042C5F602029142019038D08D
:103E4000FFE70C980168012045F24442C5F60202E2
:103E5000914201902DD0FFE70C980168012045F2B6
:103E60005842C5F602029142019022D0FFE70C9819
:103E70000168012045F26C42C5F6020291420190B0
:103E800017D0FFE70C980168012045F28042C5F683
:103E90000202914201900CD0FFE70C9800684AF6AC
:103EA0006C31CAF2FD710844B0FA80F0400901900B
:103EB000FFE70198C00790B3FFE70C98FCF7B4FD4B
:103EC0000C988068802804D1FFE70C990020486096
:103ED000FFE70C990879096E08600C98416E806EB6
:103EE00048600C98406888B1FFE70C984068082843
:103EF0000CD8FFE70C98FCF753FE0C98C16E00201D
:103F000008600C98016F406F486007E00C99002032
:103F1000C8660C9908670C994867FFE7FFE70C999A
:103F2000002048650C9A012182F835108DF8370081
:103F3000FFE79DF837000EB010BD00000000000044
:103F400080B588B0069005910492039300208DF807
:103F50000B00069820B9FFE701208DF81F006CE3E5
:103F6000FFE7069890F83400012804D1FFE702200B
:103F70008DF81F0061E30699012081F83400FFE706
:103F8000FFE7069890F83500012840F04383FFE7EB
:103F90000699022081F835000699002048650698A8
:103FA00000681021C4F20201884200F08180FFE71E
:103FB000069800682821C4F20201884278D0FFE701
:103FC000069800684021C4F20201884270D0FFE7E1
:103FD000069800685821C4F20201884268D0FFE7C1
:103FE000069800687021C4F20201884260D0FFE7A1
:103FF000069800688821C4F20201884258D0FFE781
:1040000006980068A021C4F20201884250D0FFE760
:1040100006980068B821C4F20201884248D0FFE740
:104020000698006840F21041C4F2020188423FD075
:10403000FFE70698006840F22841C4F20201884276
:1040400036D0FFE70698006840F24041C4F2020112
:1040500088422DD0FFE70698006840F25841C4F22C
:104060000201884224D0FFE70698006840F27041C0
:10407000C4F2020188421BD0FFE70698006840F2B4
:104080008841C4F20201884212D0FFE70698006816
:1040900040F2A041C4F20201884209D0FFE706982D
:1040A000006840F2B841C4F20201884207D1FFE73C
:1040B00006980168086820F00100086006E006988C
:1040C0000168086820F001000860FFE7069805997C
:1040D000049A039BFCF774FE0698016801201022E5
:1040E000C4F202029142019000F0A380FFE706981B
:1040F000016801202822C4F202029142019000F0DE
:104100009880FFE70698016801204022C4F202026D
:104110009142019000F08D80FFE706980168012030
:104120005822C4F202029142019000F08280FFE71F
:104130000698016801207022C4F2020291420190A7
:1041400077D0FFE70698016801208822C4F20202B6
:10415000914201906DD0FFE7069801680120A022EE
:10416000C4F202029142019063D0FFE70698016811
:104170000120B822C4F202029142019059D0FFE717
:1041800006980168012040F21042C4F202029142F6
:1041900001904ED0FFE706980168012040F22842C6
:1041A000C4F202029142019043D0FFE706980168F1
:1041B000012040F24042C4F202029142019038D004
:1041C000FFE706980168012040F25842C4F202025B
:1041D000914201902DD0FFE706980168012040F23E
:1041E0007042C4F202029142019022D0FFE7069889
:1041F0000168012040F28842C4F20202914201901B
:1042000017D0FFE706980168012040F2A042C4F2EF
:104210000202914201900CD0FFE7069800684FF629
:104220004831CBF6FD710844B0FA80F040090190A6
:10423000FFE70198C007A8B1FFE70698006800688B
:104240000B2161F344000699096808600698006C28
:1042500038B1FFE706980168086840F00800086078
:10426000FFE714E0069800680068052161F3430049
:104270000699096808600698006C38B1FFE706984F
:104280000168086840F004000860FFE7FFE706984F
:10429000016801201022C4F202029142009000F055
:1042A0000381FFE70698016801202822C4F2020278
:1042B0009142009000F0F880FFE706980168012025
:1042C0004022C4F202029142009000F0ED80FFE72C
:1042D0000698016801205822C4F20202914200901F
:1042E00000F0E280FFE70698016801207022C4F226
:1042F00002029142009000F0D780FFE70698016823
:1043000001208822C4F202029142009000F0CC8089
:10431000FFE7069801680120A022C4F20202914240
:10432000009000F0C180FFE7069801680120B822E4
:10433000C4F202029142009000F0B680FFE70698B6
:104340000168012040F21042C4F202029142009042
:1043500000F0AA80FFE706980168012040F2284299
:10436000C4F202029142009000F09E80FFE706989E
:104370000168012040F24042C4F2020291420090E2
:1043800000F09280FFE706980168012040F2584251
:10439000C4F202029142009000F08680FFE7069886
:1043A0000168012040F27042C4F202029142009082
:1043B0007AD0FFE706980168012040F28842C4F2F3
:1043C0000202914200906FD0FFE706980168012039
:1043D00040F2A042C4F202029142009064D0FFE792
:1043E00006980168012040F2B842C4F202029142EC
:1043F000009059D0FFE706980168012045F2084275
:10440000C5F60202914200904ED0FFE7069801687F
:10441000012045F21C42C5F602029142009043D0B1
:10442000FFE706980168012045F23042C5F6020216
:104430009142009038D0FFE706980168012045F2CC
:104440004442C5F60202914200902DD0FFE7069843
:104450000168012045F25842C5F6020291420090DF
:1044600022D0FFE706980168012045F26C42C5F6AC
:1044700002029142009017D0FFE7069801680120E0
:1044800045F28042C5F60202914200900CD0FFE74F
:10449000069800684AF66C31CAF2FD710844B0FA19
:1044A00080F040090090FFE70098C007D0B1FFE717
:1044B0000698006E0068C003002807D5FFE706983D
:1044C000016E086840F480700860FFE70698C06ECF
:1044D00038B1FFE70698C16E086840F48070086044
:1044E000FFE7FFE7069800681021C4F20201884246
:1044F00000F08180FFE7069800682821C4F20201DD
:10450000884278D0FFE7069800684021C4F2020193
:10451000884270D0FFE7069800685821C4F2020173
:10452000884268D0FFE7069800687021C4F2020153
:10453000884260D0FFE7069800688821C4F2020133
:10454000884258D0FFE706980068A021C4F2020113
:10455000884250D0FFE706980068B821C4F20201F3
:10456000884248D0FFE70698006840F21041C4F244
:10457000020188423FD0FFE70698006840F22841D8
:10458000C4F20201884236D0FFE70698006840F284
:104590004041C4F2020188422DD0FFE7069800682E
:1045A00040F25841C4F20201884224D0FFE7069845
:1045B000006840F27041C4F2020188421BD0FFE75C
:1045C0000698006840F28841C4F20201884212D085
:1045D000FFE70698006840F2A041C4F20201884259
:1045E00009D0FFE70698006840F2B841C4F2020122
:1045F000884207D1FFE706980168086840F001008B
:10460000086006E006980168086840F0010008604C
:10461000FFE70DE006994FF400604865FFE7069953
:10462000002081F83400FFE701208DF80B00FFE740
:104630009DF80B008DF81F00FFE79DF81F0008B0E4
:1046400080BD00000000000090B00F900E9100208F
:104650000D908020C5F600000A90FFE70E980D9996
:10466000C840002800F01181FFE70E980D9A012143
:10467000914008400C900C98002800F00281FFE760
:104680000D9820F0030040F20841C5F600014058A3
:104690000B900D9800F0030081000F2000FA01F14B
:1046A0000B9808400B900B9809900F980021C5F6C5
:1046B0000201884203D1FFE7002008907AE00F98BA
:1046C00040F20041C5F60201884203D1FFE7012014
:1046D00007906CE00F9840F60001C5F60201884291
:1046E00003D1FFE7022006905EE00F9840F60041FC
:1046F000C5F60201884203D1FFE70320059050E090
:104700000F9841F20001C5F60201884203D1FFE78C
:104710000420049042E00F9841F20041C5F60201E6
:10472000884203D1FFE70520039034E00F9841F65B
:104730000001C5F60201884203D1FFE7062002907E
:1047400026E00F9841F60041C5F60201884203D1E8
:10475000FFE70720019018E00F9842F20001C5F62C
:104760000201884203D1FFE7082000900AE00F9978
:1047700042F20042C5F602020A20914208BF092017
:104780000090FFE700980190FFE701980290FFE793
:1047900002980390FFE703980490FFE704980590C0
:1047A000FFE705980690FFE706980790FFE7079850
:1047B0000890FFE7099808990D9A02F00302920009
:1047C000914088422AD1FFE70C9A0A9908689043E1
:1047D00008600C9A0A994868904348600C9A042132
:1047E000C5F600010868904308600C9A4FF0B0418C
:1047F0000868904308600D9800F0030081000F20C6
:1048000088400B900B9B0D9820F0030140F208426A
:10481000C5F60002885898438850FFE70D9841007C
:10482000032000FA01F30F9A116819431160DDF8B3
:1048300034C00CF007018A000F2101FA02F30F992E
:104840006FF0030202EA5C020A44116A99431162A2
:104850000D99490000FA01F30F9AD1689943D1608C
:104860000D9A012101FA02F30F9A516899435160A0
:104870000D99490000FA01F20F9988689043886009
:10488000FFE70D9801300D90E8E610B0704700008A
:1048900080B582B0ADF80600BDF8060009F084F9D5
:1048A0000DF072FA02B080BD80B582B0ADF806009E
:1048B0008820C5F600000068BDF8061008420BD03D
:1048C000FFE7BDF806008821C5F600010860BDF8C5
:1048D0000600FFF7DDFFFFE702B080BD000000002B
:1048E00090B00F900E9100200D908020C5F6000032
:1048F0000A90FFE70E9800680D99C840002800F064
:10490000CF81FFE70E9800680D9A01219140084081
:104910000C900C98002800F0BF81FFE70E984068CB
:1049200000F00300012807D0FFE70E98406800F070
:10493000030002282FD1FFE70F9880680B900D9895
:104940004100032000FA01F10B9888430B900E9868
:10495000C0680D99490000FA01F10B9808430B90CB
:104960000B980F9988600F9840680B900D99012063
:1049700000FA01F10B9888430B900E984068C0F341
:1049800000100D9900FA01F10B9808430B900B9859
:104990000F994860FFE70E98406800F00300032875
:1049A00018D0FFE70F98C0680B900D9841000320C6
:1049B00000FA01F10B9888430B900E9880680D99CE
:1049C000490000FA01F10B9808430B900B980F99DE
:1049D000C860FFE70E98406800F00300022826D167
:1049E000FFE70F980D996FF0030202EA51010844A6
:1049F000006A0B900D9800F0070081000F2000FA6C
:104A000001F10B9888430B900E9800690D9901F005
:104A10000701890000FA01F10B9808430B900B98ED
:104A20000F990D9B02EA530211440862FFE70F98A9
:104A300000680B900D984100032000FA01F10B98DB
:104A400088430B900E98406800F003000D994900D0
:104A500000FA01F10B9808430B900B980F9908602E
:104A60000E9880798007002800F01581FFE7FFE7A6
:104A700044F2F440C5F60200016841F00201016011
:104A8000006800F0020009900998FFE70D9820F0F7
:104A9000030040F20841C5F6000140580B900D9804
:104AA00000F0030081000F2000FA01F10B98884309
:104AB0000B900F980021C5F60201884203D1FFE751
:104AC000002008907AE00F9840F20041C5F60201FC
:104AD000884203D1FFE7012007906CE00F9840F671
:104AE0000001C5F60201884203D1FFE702200690CB
:104AF0005EE00F9840F60041C5F60201884203D1FE
:104B0000FFE70320059050E00F9841F20001C5F641
:104B10000201884203D1FFE70420049042E00F988D
:104B200041F20041C5F60201884203D1FFE70520AA
:104B3000039034E00F9841F60001C5F60201884267
:104B400003D1FFE70620029026E00F9841F60041CE
:104B5000C5F60201884203D1FFE70720019018E063
:104B60000F9842F20001C5F60201884203D1FFE727
:104B7000082000900AE00F9942F20042C5F60202B6
:104B80000A20914208BF09200090FFE70098019099
:104B9000FFE701980290FFE702980390FFE7039870
:104BA0000490FFE704980590FFE705980690FFE75B
:104BB00006980790FFE707980890FFE708980D9977
:104BC00001F00301890000FA01F10B9808430B90F2
:104BD0000B980D9921F0030140F20842C5F600023E
:104BE00088504FF0B04000680B900C990B988843A8
:104BF0000B900E988079C006002805D5FFE70C9928
:104C00000B9808430B90FFE70B984FF0B0410860FA
:104C10000420C5F6000000680B900C990B9888439F
:104C20000B900E9880798006002805D5FFE70C9937
:104C30000B9808430B90FFE70B980421C5F6000181
:104C400008600A9840680B900C990B9888430B9069
:104C50000E9880798007002805D5FFE70C990B98FE
:104C600008430B90FFE70B980A9948600A98006880
:104C70000B900C990B9888430B900E988079C00785
:104C800028B1FFE70C990B9808430B90FFE70B98AE
:104C90000A990860FFE7FFE70D9801300D9029E6BB
:104CA00010B070470000000082B00190ADF8021013
:104CB00001980069BDF80210084204D0FFE7012006
:104CC0008DF8010003E000208DF80100FFE79DF85A
:104CD000010002B07047000082B00190ADF80210F0
:104CE0008DF801209DF8010028B1FFE7BDF8020012
:104CF0000199886105E0BDF802000004019988610E
:104D0000FFE702B07047000041F20000C5F6004026
:104D10000068000C7047000080B54EF21000CEF223
:104D200000000068C003002803D5FFE700F008F882
:104D3000FFE74AF64040C2F20040006880BD000034
:104D400040F2A810C2F2004002684AF64041C2F2A6
:104D5000004108681044086070470000000000002F
:104D600080B582B0032000F087F801F095FE44F290
:104D70001842C5F602021168C1F3032349F6F8711F
:104D8000C0F60101CB5C03F01F03D84000900098EF
:104D9000126802F00F02895C01F01F01C84040F266
:104DA0007C01C2F200410860009840F27801C2F232
:104DB000004108600F2000F013F820B1FFE7012048
:104DC0008DF8070005E000F013F800208DF80700CB
:104DD000FFE79DF8070002B080BD00000000000062
:104DE00080B582B001900EF06BFB002002B080BD58
:104DF00081B0FFE744F2F440C5F60200016841F0DB
:104E000002010160006800F0020000900098FFE7D6
:104E100001B070470000000080B582B0ADF8060018
:104E2000BDF9060006F058FD02B080BD000000008C
:104E300080B582B0ADF80600BDF9060006F084FD2D
:104E400002B080BD0000000080B586B0ADF816004D
:104E50000491039206F090FD0290BDF916000190B6
:104E600002980499039A04F067F90146019806F044
:104E70008BFD06B080BD000080B582B00190019826
:104E800006F0CAFD02B080BD80B584B0029044F641
:104E90000C00C5F60200006800F004010020B0EB31
:104EA000910F13D1FFE744F60C00C5F6020000682D
:104EB00000F007000299884204D0FFE701208DF836
:104EC0000F002EE000208DF80F002AE044F60C01C0
:104ED000C5F60201086820F00700029A1043086036
:104EE000FFF71AFF0190FFE744F60400C5F6020041
:104EF000006800F400510020B0EB513F0DD1FFE7F6
:104F0000FFF70AFF0199401AB0F57A7F04D9FFE74D
:104F100001208DF80F0004E0E6E700208DF80F0077
:104F2000FFE79DF80F0004B080BD00000000000006
:104F300080B501F05DFD44F22041C5F6020109682B
:104F4000C1F3021249F6F871C0F60101895C01F063
:104F50001F01C84080BD000088B0079044F228407F
:104F6000C5F60200016801F0030106910068C0F374
:104F70000530059044F22C40C5F602000068C0F3ED
:104F800000100490049844F23C41C5F602010968FF
:104F900089B2C908484300EE100AB8EE400A8DED08
:104FA000020A0598002800F01B81FFE70698009090
:104FB00048B1FFE70098012869D0FFE70098022870
:104FC00000F08980ABE044F20040C5F602000068C2
:104FD00000F020010020B0EB511F33D0FFE744F276
:104FE0000040C5F602000068C0F3C10149F20000AC
:104FF000C0F2D030C84003909DED030AB8EE400ADD
:105000009DED051AB8EE411A80EE010A44F23840CF
:10501000C5F6020000686FF35F2001EE100AB8EEDB
:10502000411A9DED022A9FED743A82EE032A31EE79
:10503000021AB7EE002A31EE021A20EE010A8DEDB7
:10504000010A23E09DED050AB8EE401A9FED6C0AB7
:1050500080EE010A44F23840C5F6020000686FF3A2
:105060005F2001EE100AB8EE411A9DED022A9FED75
:10507000623A82EE032A31EE021AB7EE002A31EECE
:10508000021A20EE010A8DED010AFFE76BE09DEDAB
:10509000050AB8EE401A9FED590A80EE010A44F263
:1050A0003840C5F6020000686FF35F2001EE100A79
:1050B000B8EE411A9DED022A9FED4F3A82EE032A87
:1050C00031EE021AB7EE002A31EE021A20EE010A82
:1050D0008DED010A47E09DED050AB8EE401A9FEDFF
:1050E000450A80EE010A44F23840C5F60200006825
:1050F0006FF35F2001EE100AB8EE411A9DED022A0F
:105100009FED3D3A82EE032A31EE021AB7EE002AF5
:1051100031EE021A20EE010A8DED010A23E09DED29
:10512000050AB8EE401A9FED350A80EE010A44F2F6
:105130003840C5F6020000686FF35F2001EE100AE8
:10514000B8EE411A9DED022A9FED2B3A82EE032A1A
:1051500031EE021AB7EE002A31EE021A20EE010AF1
:105160008DED010AFFE79DED010A44F23840C5F6D6
:105170000200016889B2490A01EE101AB8EE411A1C
:10518000B7EE002A31EE021A80EE010A0799BCEE52
:10519000C00A81ED000A9DED010A0168C1F30641D4
:1051A00001EE101AB8EE411A31EE021A80EE010A31
:1051B0000799BCEEC00A81ED010A9DED010A006865
:1051C000C0F3066001EE100AB8EE411A31EE021A81
:1051D00080EE010A0798BCEEC00A80ED020A07E0E3
:1051E0000799002008600799486007998860FFE7E1
:1051F00008B0704720BCBE4B000000460024744A33
:105200000024744C0000000088B0079044F228404D
:10521000C5F60200016801F0030106910068C0F3C1
:105220000550059044F22C40C5F602000068C0F31A
:1052300000200490049844F24441C5F60201096834
:1052400089B2C908484300EE100AB8EE400A8DED55
:10525000020A0598002800F01B81FFE706980090DD
:1052600048B1FFE70098012869D0FFE700980228BD
:1052700000F08980ABE044F20040C5F6020000680F
:1052800000F020010020B0EB511F33D0FFE744F2C3
:105290000040C5F602000068C0F3C10149F20000F9
:1052A000C0F2D030C84003909DED030AB8EE400A2A
:1052B0009DED051AB8EE411A80EE010A44F2404015
:1052C000C5F6020000686FF35F2001EE100AB8EE29
:1052D000411A9DED022A9FED743A82EE032A31EEC7
:1052E000021AB7EE002A31EE021A20EE010A8DED05
:1052F000010A23E09DED050AB8EE401A9FED6C0A05
:1053000080EE010A44F24040C5F6020000686FF3E7
:105310005F2001EE100AB8EE411A9DED022A9FEDC2
:10532000623A82EE032A31EE021AB7EE002A31EE1B
:10533000021A20EE010A8DED010AFFE76BE09DEDF8
:10534000050AB8EE401A9FED590A80EE010A44F2B0
:105350004040C5F6020000686FF35F2001EE100ABE
:10536000B8EE411A9DED022A9FED4F3A82EE032AD4
:1053700031EE021AB7EE002A31EE021A20EE010ACF
:105380008DED010A47E09DED050AB8EE401A9FED4C
:10539000450A80EE010A44F24040C5F6020000686A
:1053A0006FF35F2001EE100AB8EE411A9DED022A5C
:1053B0009FED3D3A82EE032A31EE021AB7EE002A43
:1053C00031EE021A20EE010A8DED010A23E09DED77
:1053D000050AB8EE401A9FED350A80EE010A44F244
:1053E0004040C5F6020000686FF35F2001EE100A2E
:1053F000B8EE411A9DED022A9FED2B3A82EE032A68
:1054000031EE021AB7EE002A31EE021A20EE010A3E
:105410008DED010AFFE79DED010A44F24040C5F61B
:105420000200016889B2490A01EE101AB8EE411A69
:10543000B7EE002A31EE021A80EE010A0799BCEE9F
:10544000C00A81ED000A9DED010A0168C1F3064121
:1054500001EE101AB8EE411A31EE021A80EE010A7E
:105460000799BCEEC00A81ED010A9DED010A0068B2
:10547000C0F3066001EE100AB8EE411A31EE021ACE
:1054800080EE010A0798BCEEC00A80ED020A07E030
:105490000799002008600799486007998860FFE72E
:1054A00008B0704720BCBE4B000000460024744A80
:1054B0000024744C0000000080B59AB018900020C1
:1054C0008DF857008DF856001898C078000700280E
:1054D00048D5FFE71898806E149078B1FFE71498CC
:1054E000B0F5801F13D0FFE71498B0F5001F16D059
:1054F000FFE71498B0F5401F19D019E044F22C4191
:10550000C5F60201086840F40030086014E01898FD
:105510000830022103F048FE8DF857000CE018987F
:105520002830022103F028FF8DF8570004E003E043
:1055300001208DF85700FFE79DF8570060B9FFE79D
:1055400044F25041C5F60201086820F44010189A50
:10555000926E1043086004E09DF857008DF85600E5
:10556000FFE7FFE718984078C007002840D0FFE722
:105570001898806D1390042820D81399DFE801F063
:10558000030C141C1D0044F22C41C5F602010868EE
:1055900040F40030086015E018980830002103F04E
:1055A00003FE8DF857000DE018982830002103F015
:1055B000E3FE8DF8570005E004E003E001208DF8DC
:1055C0005700FFE79DF8570060B9FFE744F25041EC
:1055D000C5F60201086820F00700189A926D104382
:1055E000086004E09DF857008DF85600FFE7FFE7DC
:1055F00018984078800700284BD5FFE71898C06DB1
:10560000129088B1FFE71298402816D0FFE7129851
:1056100080281AD0FFE71298C0281ED0FFE7129802
:10562000B0F5807F1AD01AE044F22C41C5F6020191
:10563000086840F40030086015E018980830002130
:1056400003F0B2FD8DF857000DE0189828300021C6
:1056500003F092FE8DF8570005E004E003E001201E
:105660008DF85700FFE79DF8570060B9FFE744F257
:105670005041C5F60201086820F4E070189AD26D16
:105680001043086004E09DF857008DF85600FFE7CE
:10569000FFE7189840784007002850D5FFE7189892
:1056A000D0F8A8001190A0B1FFE71198B0F5001F45
:1056B00018D0FFE71198B0F5800F1BD0FFE71198C5
:1056C000B0F5C00F1ED0FFE71198B0F5000F1AD04B
:1056D0001AE044F22C41C5F60201086840F400309B
:1056E000086015E018980830002103F05DFD8DF882
:1056F00057000DE018982830002103F03DFE8DF88A
:10570000570005E004E003E001208DF85700FFE7B3
:105710009DF8570068B9FFE744F25841C5F6020109
:10572000086820F46000189AD2F8A8201043086096
:1057300004E09DF857008DF85600FFE7FFE7189842
:1057400040780007002850D5FFE71898D0F8AC0043
:105750001090A0B1FFE71098B0F1807F18D0FFE75C
:105760001098B0F1007F1BD0FFE71098B0F1407F98
:105770001ED0FFE71098B0F1806F1AD01AE044F203
:105780002C41C5F60201086840F40030086015E0BD
:1057900018980830002103F007FD8DF857000DE040
:1057A00018982830002103F0E7FD8DF8570005E038
:1057B00004E003E001208DF85700FFE79DF8570053
:1057C00068B9FFE744F25841C5F60201086820F0C5
:1057D000E060189AD2F8AC201043086004E09DF80D
:1057E00057008DF85600FFE7FFE71898C07880074C
:1057F00000283ED5FFE71898C06C0F90F0B1FFE786
:105800000F98102808D0FFE70F9820280DD0FFE749
:105810000F98302811D012E044F22C41C5F6020155
:10582000086840F4003008600DE018980830022144
:1058300003F0BAFC8DF8570005E004E003E0012016
:105840008DF85700FFE79DF8570060B9FFE744F275
:105850004C41C5F60201086820F03000189AD26C5D
:105860001043086004E09DF857008DF85600FFE7EC
:10587000FFE718984078C00600284ED5FFE7189833
:10588000006E0E90A0B1FFE70E98B0F5805F18D0C3
:10589000FFE70E98B0F5005F1BD0FFE70E98B0F55C
:1058A000405F1ED0FFE70E98B0F5804F1AD01AE087
:1058B00044F22C41C5F60201086840F4003008604B
:1058C00015E018980830002103F06EFC8DF85700A1
:1058D0000DE018982830002103F04EFD8DF8570098
:1058E00005E004E003E001208DF85700FFE79DF894
:1058F000570060B9FFE744F25041C5F6020108685D
:1059000020F4E040189A126E1043086004E09DF8FD
:1059100057008DF85600FFE7FFE71898407880069B
:1059200000284CD5FFE71898406E0D90C8B1FFE7EE
:105930000D98B0F5803F15D0FFE70D98B0F5003F0A
:1059400018D0FFE70D98B0F5403F1BD0FFE70D984A
:10595000B0F5802F17D0FFE70D98B0F5A02F13D02A
:1059600013E016E018980830012103F01DFC8DF8B3
:1059700057000EE018982830012103F0FDFC8DF847
:10598000570006E005E004E003E001208DF8570031
:10599000FFE79DF8570060B9FFE744F25041C5F6B4
:1059A0000201086820F4E020189A526E1043086043
:1059B00004E09DF857008DF85600FFE7FFE71898C0
:1059C0004078400600284ED5FFE71898D0F8B00080
:1059D0000C90C8B1FFE70C98B0F1805F15D0FFE7DD
:1059E0000C98B0F1005F18D0FFE70C98B0F1405F61
:1059F0001BD0FFE70C98B0F1804F17D0FFE70C9851
:105A0000B0F1A04F13D013E016E018980830012130
:105A100003F0CAFB8DF857000EE0189828300121DA
:105A200003F0AAFC8DF8570006E005E004E003E06F
:105A300001208DF85700FFE79DF8570068B9FFE790
:105A400044F25841C5F60201086820F0E040189A77
:105A5000D2F8B0201043086004E09DF857008DF89C
:105A60005600FFE7FFE718984078000600283BD56E
:105A7000FFE71898006F0B90D8B1FFE70B98B0F1D3
:105A8000805F05D0FFE70B98B0F1005F09D011E00F
:105A900044F22C41C5F60201086840F40030086069
:105AA0000CE018980830012103F07EFB8DF85700B8
:105AB00004E003E001208DF85700FFE79DF8570050
:105AC00060B9FFE744F25041C5F60201086820F0D2
:105AD0004050189A126F1043086004E09DF8570078
